{
  "contractName": "Access",
  "abi": [
    {
      "anonymous": false,
      "inputs": [
        {
          "indexed": false,
          "internalType": "address",
          "name": "previousAdmin",
          "type": "address"
        },
        {
          "indexed": false,
          "internalType": "address",
          "name": "newAdmin",
          "type": "address"
        }
      ],
      "name": "AdminChanged",
      "type": "event"
    },
    {
      "anonymous": false,
      "inputs": [
        {
          "indexed": true,
          "internalType": "address",
          "name": "beacon",
          "type": "address"
        }
      ],
      "name": "BeaconUpgraded",
      "type": "event"
    },
    {
      "anonymous": false,
      "inputs": [
        {
          "indexed": false,
          "internalType": "bytes32",
          "name": "resource",
          "type": "bytes32"
        },
        {
          "indexed": false,
          "internalType": "bytes32",
          "name": "consentId",
          "type": "bytes32"
        },
        {
          "indexed": false,
          "internalType": "address",
          "name": "researcher",
          "type": "address"
        },
        {
          "indexed": false,
          "internalType": "address",
          "name": "resourceOwner",
          "type": "address"
        }
      ],
      "name": "GiveAccess",
      "type": "event"
    },
    {
      "anonymous": false,
      "inputs": [
        {
          "indexed": false,
          "internalType": "uint8",
          "name": "version",
          "type": "uint8"
        }
      ],
      "name": "Initialized",
      "type": "event"
    },
    {
      "anonymous": false,
      "inputs": [
        {
          "indexed": true,
          "internalType": "address",
          "name": "previousOwner",
          "type": "address"
        },
        {
          "indexed": true,
          "internalType": "address",
          "name": "newOwner",
          "type": "address"
        }
      ],
      "name": "OwnershipTransferred",
      "type": "event"
    },
    {
      "anonymous": false,
      "inputs": [
        {
          "indexed": false,
          "internalType": "bytes32",
          "name": "resource",
          "type": "bytes32"
        },
        {
          "indexed": false,
          "internalType": "bytes32",
          "name": "consentId",
          "type": "bytes32"
        },
        {
          "indexed": false,
          "internalType": "address",
          "name": "researcher",
          "type": "address"
        }
      ],
      "name": "RevokeAccess",
      "type": "event"
    },
    {
      "anonymous": false,
      "inputs": [
        {
          "indexed": true,
          "internalType": "address",
          "name": "implementation",
          "type": "address"
        }
      ],
      "name": "Upgraded",
      "type": "event"
    },
    {
      "inputs": [],
      "name": "consent",
      "outputs": [
        {
          "internalType": "contract Consent",
          "name": "",
          "type": "address"
        }
      ],
      "stateMutability": "view",
      "type": "function",
      "constant": true
    },
    {
      "inputs": [],
      "name": "owner",
      "outputs": [
        {
          "internalType": "address",
          "name": "",
          "type": "address"
        }
      ],
      "stateMutability": "view",
      "type": "function",
      "constant": true
    },
    {
      "inputs": [],
      "name": "proxiableUUID",
      "outputs": [
        {
          "internalType": "bytes32",
          "name": "",
          "type": "bytes32"
        }
      ],
      "stateMutability": "view",
      "type": "function",
      "constant": true
    },
    {
      "inputs": [],
      "name": "renounceOwnership",
      "outputs": [],
      "stateMutability": "nonpayable",
      "type": "function"
    },
    {
      "inputs": [
        {
          "internalType": "address",
          "name": "newOwner",
          "type": "address"
        }
      ],
      "name": "transferOwnership",
      "outputs": [],
      "stateMutability": "nonpayable",
      "type": "function"
    },
    {
      "inputs": [
        {
          "internalType": "address",
          "name": "newImplementation",
          "type": "address"
        }
      ],
      "name": "upgradeTo",
      "outputs": [],
      "stateMutability": "nonpayable",
      "type": "function"
    },
    {
      "inputs": [
        {
          "internalType": "address",
          "name": "newImplementation",
          "type": "address"
        },
        {
          "internalType": "bytes",
          "name": "data",
          "type": "bytes"
        }
      ],
      "name": "upgradeToAndCall",
      "outputs": [],
      "stateMutability": "payable",
      "type": "function",
      "payable": true
    },
    {
      "inputs": [
        {
          "internalType": "contract Consent",
          "name": "_consent",
          "type": "address"
        }
      ],
      "name": "initialize",
      "outputs": [],
      "stateMutability": "nonpayable",
      "type": "function"
    },
    {
      "inputs": [
        {
          "internalType": "bytes32",
          "name": "resource",
          "type": "bytes32"
        },
        {
          "internalType": "bytes32",
          "name": "consentId",
          "type": "bytes32"
        },
        {
          "internalType": "address",
          "name": "researcher",
          "type": "address"
        }
      ],
      "name": "giveAccess",
      "outputs": [],
      "stateMutability": "nonpayable",
      "type": "function"
    },
    {
      "inputs": [
        {
          "internalType": "bytes32",
          "name": "resource",
          "type": "bytes32"
        },
        {
          "internalType": "bytes32",
          "name": "consentId",
          "type": "bytes32"
        },
        {
          "internalType": "address",
          "name": "researcher",
          "type": "address"
        }
      ],
      "name": "revokeAccess",
      "outputs": [],
      "stateMutability": "nonpayable",
      "type": "function"
    },
    {
      "inputs": [
        {
          "internalType": "bytes32",
          "name": "resource",
          "type": "bytes32"
        },
        {
          "internalType": "bytes32",
          "name": "consentId",
          "type": "bytes32"
        }
      ],
      "name": "checkAccess",
      "outputs": [
        {
          "internalType": "bool",
          "name": "",
          "type": "bool"
        }
      ],
      "stateMutability": "view",
      "type": "function",
      "constant": true
    },
    {
      "inputs": [
        {
          "internalType": "bytes32",
          "name": "consentId",
          "type": "bytes32"
        }
      ],
      "name": "getResourceByConsent",
      "outputs": [
        {
          "internalType": "address[]",
          "name": "",
          "type": "address[]"
        },
        {
          "internalType": "bytes32[]",
          "name": "",
          "type": "bytes32[]"
        }
      ],
      "stateMutability": "view",
      "type": "function",
      "constant": true
    }
  ],
  "bytecode": "0x60a06040523073ffffffffffffffffffffffffffffffffffffffff1660809073ffffffffffffffffffffffffffffffffffffffff166c010000000000000000000000000281525034801561005257600080fd5b506080516c010000000000000000000000009004612e9661009a600039600081816102c701528181610356015281816107fa0152818161088901526109390152612e966000f3fe6080604052600436106100c4576000357c010000000000000000000000000000000000000000000000000000000090048063715018a611610081578063715018a6146101c85780638da5cb5b146101df578063b3d3404a1461020a578063b4fdb45614610235578063c4d66de814610273578063f2fde38b1461029c576100c4565b80633659cfe6146100c95780633848aa37146100f25780634f1ef2861461011b57806352d1902d146101375780635af1befb146101625780636e722abf1461019f575b600080fd5b3480156100d557600080fd5b506100f060048036038101906100eb9190611d28565b6102c5565b005b3480156100fe57600080fd5b5061011960048036038101906101149190611e5c565b610474565b005b61013560048036038101906101309190611d51565b6107f8565b005b34801561014357600080fd5b5061014c610935565b6040516101599190612347565b60405180910390f35b34801561016e57600080fd5b5061018960048036038101906101849190611e20565b6109ee565b604051610196919061232c565b60405180910390f35b3480156101ab57600080fd5b506101c660048036038101906101c19190611e5c565b610b45565b005b3480156101d457600080fd5b506101dd610d62565b005b3480156101eb57600080fd5b506101f4610dea565b60405161020191906122da565b60405180910390f35b34801561021657600080fd5b5061021f610e14565b60405161022c9190612407565b60405180910390f35b34801561024157600080fd5b5061025c60048036038101906102579190611dce565b610e3a565b60405161026a9291906122f5565b60405180910390f35b34801561027f57600080fd5b5061029a60048036038101906102959190611eab565b611293565b005b3480156102a857600080fd5b506102c360048036038101906102be9190611d28565b611371565b005b7f000000000000000000000000000000000000000000000000000000000000000073ffffffffffffffffffffffffffffffffffffffff163073ffffffffffffffffffffffffffffffffffffffff161415610354576040517f08c379a000000000000000000000000000000000000000000000000000000000815260040161034b9061249f565b60405180910390fd5b7f000000000000000000000000000000000000000000000000000000000000000073ffffffffffffffffffffffffffffffffffffffff16610393611469565b73ffffffffffffffffffffffffffffffffffffffff16146103e9576040517f08c379a00000000000000000000000000000000000000000000000000000000081526004016103e09061251f565b60405180910390fd5b6103f2816114c0565b61047181600067ffffffffffffffff811115610437577f4e487b7100000000000000000000000000000000000000000000000000000000600052604160045260246000fd5b6040519080825280601f01601f1916602001820160405280156104695781602001600182028036833780820191505090505b50600061153f565b50565b60c960009054906101000a900473ffffffffffffffffffffffffffffffffffffffff1673ffffffffffffffffffffffffffffffffffffffff1663053d31dc83336040518363ffffffff167c01000000000000000000000000000000000000000000000000000000000281526004016104ed929190612362565b60206040518083038186803b15801561050557600080fd5b505afa158015610519573d6000803e3d6000fd5b505050506040513d601f19601f8201168201806040525081019061053d9190611da5565b61057c576040517f08c379a0000000000000000000000000000000000000000000000000000000008152600401610573906124bf565b60405180910390fd5b60ca6000838152602001908152602001600020600084815260200190815260200160002060040160009054906101000a900460ff1661073c5760cb60008381526020019081526020016000208390806001815401808255809150506001900390600052602060002001600090919091909150553360ca6000848152602001908152602001600020600085815260200190815260200160002060000160006101000a81548173ffffffffffffffffffffffffffffffffffffffff021916908373ffffffffffffffffffffffffffffffffffffffff1602179055508260ca60008481526020019081526020016000206000858152602001908152602001600020600201819055504260ca6000848152602001908152602001600020600085815260200190815260200160002060030181905550600160ca6000848152602001908152602001600020600085815260200190815260200160002060040160006101000a81548160ff021916908315150217905550600160cb6000848152602001908152602001600020805490506107109190612759565b60ca60008481526020019081526020016000206000858152602001908152602001600020600501819055505b600160cc6000848152602001908152602001600020600085815260200190815260200160002060008373ffffffffffffffffffffffffffffffffffffffff1673ffffffffffffffffffffffffffffffffffffffff16815260200190815260200160002060006101000a81548160ff0219169083151502179055507f37d033434ee5dc11e50c332831ba787bb7d84b06915508c87dfe87f753ef763a838383336040516107eb94939291906123c2565b60405180910390a1505050565b7f000000000000000000000000000000000000000000000000000000000000000073ffffffffffffffffffffffffffffffffffffffff163073ffffffffffffffffffffffffffffffffffffffff161415610887576040517f08c379a000000000000000000000000000000000000000000000000000000000815260040161087e9061249f565b60405180910390fd5b7f000000000000000000000000000000000000000000000000000000000000000073ffffffffffffffffffffffffffffffffffffffff166108c6611469565b73ffffffffffffffffffffffffffffffffffffffff161461091c576040517f08c379a00000000000000000000000000000000000000000000000000000000081526004016109139061251f565b60405180910390fd5b610925826114c0565b6109318282600161153f565b5050565b60007f000000000000000000000000000000000000000000000000000000000000000073ffffffffffffffffffffffffffffffffffffffff163073ffffffffffffffffffffffffffffffffffffffff16146109c5576040517f08c379a00000000000000000000000000000000000000000000000000000000081526004016109bc9061253f565b60405180910390fd5b7f360894a13ba1a3210667c828492db98dca3e2076cc3735a920a3ca505d382bbc600102905090565b60008060ca60008481526020019081526020016000206000858152602001908152602001600020600301541415610a5a576040517f08c379a0000000000000000000000000000000000000000000000000000000008152600401610a519061247f565b60405180910390fd5b60cc6000838152602001908152602001600020600084815260200190815260200160002060003373ffffffffffffffffffffffffffffffffffffffff1673ffffffffffffffffffffffffffffffffffffffff16815260200190815260200160002060009054906101000a900460ff16610b08576040517f08c379a0000000000000000000000000000000000000000000000000000000008152600401610aff906124df565b60405180910390fd5b60ca6000838152602001908152602001600020600084815260200190815260200160002060040160009054906101000a900460ff16905092915050565b3373ffffffffffffffffffffffffffffffffffffffff1660ca6000848152602001908152602001600020600085815260200190815260200160002060000160009054906101000a900473ffffffffffffffffffffffffffffffffffffffff1673ffffffffffffffffffffffffffffffffffffffff1614610bfa576040517f08c379a0000000000000000000000000000000000000000000000000000000008152600401610bf1906124ff565b60405180910390fd5b60cc6000838152602001908152602001600020600084815260200190815260200160002060008273ffffffffffffffffffffffffffffffffffffffff1673ffffffffffffffffffffffffffffffffffffffff16815260200190815260200160002060009054906101000a900460ff16610ca8576040517f08c379a0000000000000000000000000000000000000000000000000000000008152600401610c9f906125ff565b60405180910390fd5b600060cc6000848152602001908152602001600020600085815260200190815260200160002060008373ffffffffffffffffffffffffffffffffffffffff1673ffffffffffffffffffffffffffffffffffffffff16815260200190815260200160002060006101000a81548160ff0219169083151502179055507fddd0dbd091208ae705d0981306b290230ecaf7e7af2baa8b832529c98db682fd838383604051610d559392919061238b565b60405180910390a1505050565b610d6a6116d8565b73ffffffffffffffffffffffffffffffffffffffff16610d88610dea565b73ffffffffffffffffffffffffffffffffffffffff1614610dde576040517f08c379a0000000000000000000000000000000000000000000000000000000008152600401610dd5906125df565b60405180910390fd5b610de860006116e0565b565b6000609760009054906101000a900473ffffffffffffffffffffffffffffffffffffffff16905090565b60c960009054906101000a900473ffffffffffffffffffffffffffffffffffffffff1681565b606080600060cb6000858152602001908152602001600020805480602002602001604051908101604052809291908181526020018280548015610e9c57602002820191906000526020600020905b815481526020019060010190808311610e88575b505050505090506000815167ffffffffffffffff811115610ee6577f4e487b7100000000000000000000000000000000000000000000000000000000600052604160045260246000fd5b604051908082528060200260200182016040528015610f145781602001602082028036833780820191505090505b5090506000825167ffffffffffffffff811115610f5a577f4e487b7100000000000000000000000000000000000000000000000000000000600052604160045260246000fd5b604051908082528060200260200182016040528015610f885781602001602082028036833780820191505090505b50905060005b83518110156112845760ca60008881526020019081526020016000206000858381518110610fe5577f4e487b7100000000000000000000000000000000000000000000000000000000600052603260045260246000fd5b6020026020010151815260200190815260200160002060040160009054906101000a900460ff1680156110c3575060cc60008881526020019081526020016000206000858381518110611061577f4e487b7100000000000000000000000000000000000000000000000000000000600052603260045260246000fd5b6020026020010151815260200190815260200160002060003373ffffffffffffffffffffffffffffffffffffffff1673ffffffffffffffffffffffffffffffffffffffff16815260200190815260200160002060009054906101000a900460ff165b156112715760ca60008881526020019081526020016000206000858381518110611116577f4e487b7100000000000000000000000000000000000000000000000000000000600052603260045260246000fd5b6020026020010151815260200190815260200160002060000160009054906101000a900473ffffffffffffffffffffffffffffffffffffffff16838281518110611189577f4e487b7100000000000000000000000000000000000000000000000000000000600052603260045260246000fd5b602002602001019073ffffffffffffffffffffffffffffffffffffffff16908173ffffffffffffffffffffffffffffffffffffffff168152505060ca60008881526020019081526020016000206000858381518110611211577f4e487b7100000000000000000000000000000000000000000000000000000000600052603260045260246000fd5b6020026020010151815260200190815260200160002060020154828281518110611264577f4e487b7100000000000000000000000000000000000000000000000000000000600052603260045260246000fd5b6020026020010181815250505b808061127c906128a7565b915050610f8e565b50818194509450505050915091565b600061129f60016117a6565b905080156112c3576001600060016101000a81548160ff0219169083151502179055505b8160c960006101000a81548173ffffffffffffffffffffffffffffffffffffffff021916908373ffffffffffffffffffffffffffffffffffffffff16021790555061130c611896565b6113146118ef565b801561136d5760008060016101000a81548160ff0219169083151502179055507f7f26b83ff96e1f2b6a682f133852f6798a09c465da95921460cefb384740249860016040516113649190612422565b60405180910390a15b5050565b6113796116d8565b73ffffffffffffffffffffffffffffffffffffffff16611397610dea565b73ffffffffffffffffffffffffffffffffffffffff16146113ed576040517f08c379a00000000000000000000000000000000000000000000000000000000081526004016113e4906125df565b60405180910390fd5b600073ffffffffffffffffffffffffffffffffffffffff168173ffffffffffffffffffffffffffffffffffffffff16141561145d576040517f08c379a00000000000000000000000000000000000000000000000000000000081526004016114549061245f565b60405180910390fd5b611466816116e0565b50565b60006114977f360894a13ba1a3210667c828492db98dca3e2076cc3735a920a3ca505d382bbc600102611940565b60000160009054906101000a900473ffffffffffffffffffffffffffffffffffffffff16905090565b6114c86116d8565b73ffffffffffffffffffffffffffffffffffffffff166114e6610dea565b73ffffffffffffffffffffffffffffffffffffffff161461153c576040517f08c379a0000000000000000000000000000000000000000000000000000000008152600401611533906125df565b60405180910390fd5b50565b61156b7f4910fdfa16fed3260ed0e7147f7cc6da11a60208b5b9406d12a635614ffd914360010261194a565b60000160009054906101000a900460ff161561158f5761158a83611954565b6116d3565b8273ffffffffffffffffffffffffffffffffffffffff166352d1902d6040518163ffffffff167c010000000000000000000000000000000000000000000000000000000002815260040160206040518083038186803b1580156115f157600080fd5b505afa92505050801561162257506040513d601f19601f8201168201806040525081019061161f9190611df7565b60015b611661576040517f08c379a00000000000000000000000000000000000000000000000000000000081526004016116589061259f565b60405180910390fd5b7f360894a13ba1a3210667c828492db98dca3e2076cc3735a920a3ca505d382bbc60010281146116c6576040517f08c379a00000000000000000000000000000000000000000000000000000000081526004016116bd9061255f565b60405180910390fd5b506116d2838383611a0d565b5b505050565b600033905090565b6000609760009054906101000a900473ffffffffffffffffffffffffffffffffffffffff16905081609760006101000a81548173ffffffffffffffffffffffffffffffffffffffff021916908373ffffffffffffffffffffffffffffffffffffffff1602179055508173ffffffffffffffffffffffffffffffffffffffff168173ffffffffffffffffffffffffffffffffffffffff167f8be0079c531659141344cd1fd0a4f28419497f9722a3daafe3b4186f6b6457e060405160405180910390a35050565b60008060019054906101000a900460ff161561181d5760018260ff161480156117d557506117d330611a39565b155b611814576040517f08c379a000000000000000000000000000000000000000000000000000000000815260040161180b9061257f565b60405180910390fd5b60009050611891565b8160ff1660008054906101000a900460ff1660ff1610611872576040517f08c379a00000000000000000000000000000000000000000000000000000000081526004016118699061257f565b60405180910390fd5b816000806101000a81548160ff021916908360ff160217905550600190505b919050565b600060019054906101000a900460ff166118e5576040517f08c379a00000000000000000000000000000000000000000000000000000000081526004016118dc9061263f565b60405180910390fd5b6118ed611a5c565b565b600060019054906101000a900460ff1661193e576040517f08c379a00000000000000000000000000000000000000000000000000000000081526004016119359061263f565b60405180910390fd5b565b6000819050919050565b6000819050919050565b61195d81611a39565b61199c576040517f08c379a0000000000000000000000000000000000000000000000000000000008152600401611993906125bf565b60405180910390fd5b806119c97f360894a13ba1a3210667c828492db98dca3e2076cc3735a920a3ca505d382bbc600102611940565b60000160006101000a81548173ffffffffffffffffffffffffffffffffffffffff021916908373ffffffffffffffffffffffffffffffffffffffff16021790555050565b611a1683611abd565b600082511180611a235750805b15611a3457611a328383611b0c565b505b505050565b6000808273ffffffffffffffffffffffffffffffffffffffff163b119050919050565b600060019054906101000a900460ff16611aab576040517f08c379a0000000000000000000000000000000000000000000000000000000008152600401611aa29061263f565b60405180910390fd5b611abb611ab66116d8565b6116e0565b565b611ac681611954565b8073ffffffffffffffffffffffffffffffffffffffff167fbc7cd75a20ee27fd9adebab32041f755214dbc6bffa90cc0225b39da2e5c2d3b60405160405180910390a250565b6060611b1783611a39565b611b56576040517f08c379a0000000000000000000000000000000000000000000000000000000008152600401611b4d9061261f565b60405180910390fd5b6000808473ffffffffffffffffffffffffffffffffffffffff1684604051611b7e91906122c3565b600060405180830381855af49150503d8060008114611bb9576040519150601f19603f3d011682016040523d82523d6000602084013e611bbe565b606091505b5091509150611be68282604051806060016040528060278152602001612e3a60279139611bf0565b9250505092915050565b60608315611c0057829050611c50565b600083511115611c135782518084602001fd5b816040517f08c379a0000000000000000000000000000000000000000000000000000000008152600401611c47919061243d565b60405180910390fd5b9392505050565b6000611c6a611c6584612684565b61265f565b905082815260208101848484011115611c8257600080fd5b611c8d848285612834565b509392505050565b600081359050611ca481612ddd565b92915050565b600081519050611cb981612df4565b92915050565b600081359050611cce81612e0b565b92915050565b600081519050611ce381612e0b565b92915050565b600082601f830112611cfa57600080fd5b8135611d0a848260208601611c57565b91505092915050565b600081359050611d2281612e22565b92915050565b600060208284031215611d3a57600080fd5b6000611d4884828501611c95565b91505092915050565b60008060408385031215611d6457600080fd5b6000611d7285828601611c95565b925050602083013567ffffffffffffffff811115611d8f57600080fd5b611d9b85828601611ce9565b9150509250929050565b600060208284031215611db757600080fd5b6000611dc584828501611caa565b91505092915050565b600060208284031215611de057600080fd5b6000611dee84828501611cbf565b91505092915050565b600060208284031215611e0957600080fd5b6000611e1784828501611cd4565b91505092915050565b60008060408385031215611e3357600080fd5b6000611e4185828601611cbf565b9250506020611e5285828601611cbf565b9150509250929050565b600080600060608486031215611e7157600080fd5b6000611e7f86828701611cbf565b9350506020611e9086828701611cbf565b9250506040611ea186828701611c95565b9150509250925092565b600060208284031215611ebd57600080fd5b6000611ecb84828501611d13565b91505092915050565b6000611ee08383611f04565b60208301905092915050565b6000611ef88383611fed565b60208301905092915050565b611f0d8161278d565b82525050565b611f1c8161278d565b82525050565b6000611f2d826126d5565b611f37818561271b565b9350611f42836126b5565b8060005b83811015611f73578151611f5a8882611ed4565b9750611f6583612701565b925050600181019050611f46565b5085935050505092915050565b6000611f8b826126e0565b611f95818561272c565b9350611fa0836126c5565b8060005b83811015611fd1578151611fb88882611eec565b9750611fc38361270e565b925050600181019050611fa4565b5085935050505092915050565b611fe78161279f565b82525050565b611ff6816127ab565b82525050565b612005816127ab565b82525050565b6000612016826126eb565b612020818561273d565b9350612030818560208601612843565b80840191505092915050565b612045816127fe565b82525050565b61205481612822565b82525050565b6000612065826126f6565b61206f8185612748565b935061207f818560208601612843565b6120888161294e565b840191505092915050565b60006120a0602683612748565b91506120ab8261295f565b604082019050919050565b60006120c3602583612748565b91506120ce826129ae565b604082019050919050565b60006120e6602c83612748565b91506120f1826129fd565b604082019050919050565b6000612109601683612748565b915061211482612a4c565b602082019050919050565b600061212c602c83612748565b915061213782612a75565b604082019050919050565b600061214f601f83612748565b915061215a82612ac4565b602082019050919050565b6000612172602c83612748565b915061217d82612aed565b604082019050919050565b6000612195603883612748565b91506121a082612b3c565b604082019050919050565b60006121b8602983612748565b91506121c382612b8b565b604082019050919050565b60006121db602e83612748565b91506121e682612bda565b604082019050919050565b60006121fe602e83612748565b915061220982612c29565b604082019050919050565b6000612221602d83612748565b915061222c82612c78565b604082019050919050565b6000612244602083612748565b915061224f82612cc7565b602082019050919050565b6000612267602a83612748565b915061227282612cf0565b604082019050919050565b600061228a602683612748565b915061229582612d3f565b604082019050919050565b60006122ad602b83612748565b91506122b882612d8e565b604082019050919050565b60006122cf828461200b565b915081905092915050565b60006020820190506122ef6000830184611f13565b92915050565b6000604082019050818103600083015261230f8185611f22565b905081810360208301526123238184611f80565b90509392505050565b60006020820190506123416000830184611fde565b92915050565b600060208201905061235c6000830184611ffc565b92915050565b60006040820190506123776000830185611ffc565b6123846020830184611f13565b9392505050565b60006060820190506123a06000830186611ffc565b6123ad6020830185611ffc565b6123ba6040830184611f13565b949350505050565b60006080820190506123d76000830187611ffc565b6123e46020830186611ffc565b6123f16040830185611f13565b6123fe6060830184611f13565b95945050505050565b600060208201905061241c600083018461203c565b92915050565b6000602082019050612437600083018461204b565b92915050565b60006020820190508181036000830152612457818461205a565b905092915050565b6000602082019050818103600083015261247881612093565b9050919050565b60006020820190508181036000830152612498816120b6565b9050919050565b600060208201905081810360008301526124b8816120d9565b9050919050565b600060208201905081810360008301526124d8816120fc565b9050919050565b600060208201905081810360008301526124f88161211f565b9050919050565b6000602082019050818103600083015261251881612142565b9050919050565b6000602082019050818103600083015261253881612165565b9050919050565b6000602082019050818103600083015261255881612188565b9050919050565b60006020820190508181036000830152612578816121ab565b9050919050565b60006020820190508181036000830152612598816121ce565b9050919050565b600060208201905081810360008301526125b8816121f1565b9050919050565b600060208201905081810360008301526125d881612214565b9050919050565b600060208201905081810360008301526125f881612237565b9050919050565b600060208201905081810360008301526126188161225a565b9050919050565b600060208201905081810360008301526126388161227d565b9050919050565b60006020820190508181036000830152612658816122a0565b9050919050565b600061266961267a565b90506126758282612876565b919050565b6000604051905090565b600067ffffffffffffffff82111561269f5761269e61291f565b5b6126a88261294e565b9050602081019050919050565b6000819050602082019050919050565b6000819050602082019050919050565b600081519050919050565b600081519050919050565b600081519050919050565b600081519050919050565b6000602082019050919050565b6000602082019050919050565b600082825260208201905092915050565b600082825260208201905092915050565b600081905092915050565b600082825260208201905092915050565b6000612764826127e7565b915061276f836127e7565b925082821015612782576127816128f0565b5b828203905092915050565b6000612798826127c7565b9050919050565b60008115159050919050565b6000819050919050565b60006127c08261278d565b9050919050565b600073ffffffffffffffffffffffffffffffffffffffff82169050919050565b6000819050919050565b600060ff82169050919050565b600061280982612810565b9050919050565b600061281b826127c7565b9050919050565b600061282d826127f1565b9050919050565b82818337600083830152505050565b60005b83811015612861578082015181840152602081019050612846565b83811115612870576000848401525b50505050565b61287f8261294e565b810181811067ffffffffffffffff8211171561289e5761289d61291f565b5b80604052505050565b60006128b2826127e7565b91507fffffffffffffffffffffffffffffffffffffffffffffffffffffffffffffffff8214156128e5576128e46128f0565b5b600182019050919050565b7f4e487b7100000000000000000000000000000000000000000000000000000000600052601160045260246000fd5b7f4e487b7100000000000000000000000000000000000000000000000000000000600052604160045260246000fd5b6000601f19601f8301169050919050565b7f4f776e61626c653a206e6577206f776e657220697320746865207a65726f206160008201527f6464726573730000000000000000000000000000000000000000000000000000602082015250565b7f5265736f75726365206973206e6f74207265676973746572656420696e20636f60008201527f6e73656e74000000000000000000000000000000000000000000000000000000602082015250565b7f46756e6374696f6e206d7573742062652063616c6c6564207468726f7567682060008201527f64656c656761746563616c6c0000000000000000000000000000000000000000602082015250565b7f436f6e73656e74206e6f74207265676973746572656400000000000000000000600082015250565b7f596f7520646f6e27742068617665207065726d697373696f6e206f766572207460008201527f686973207265736f757263650000000000000000000000000000000000000000602082015250565b7f596f7520617265206e6f7420746865207265736f75726365206f776e65722e00600082015250565b7f46756e6374696f6e206d7573742062652063616c6c6564207468726f7567682060008201527f6163746976652070726f78790000000000000000000000000000000000000000602082015250565b7f555550535570677261646561626c653a206d757374206e6f742062652063616c60008201527f6c6564207468726f7567682064656c656761746563616c6c0000000000000000602082015250565b7f45524331393637557067726164653a20756e737570706f727465642070726f7860008201527f6961626c65555549440000000000000000000000000000000000000000000000602082015250565b7f496e697469616c697a61626c653a20636f6e747261637420697320616c72656160008201527f647920696e697469616c697a6564000000000000000000000000000000000000602082015250565b7f45524331393637557067726164653a206e657720696d706c656d656e7461746960008201527f6f6e206973206e6f742055555053000000000000000000000000000000000000602082015250565b7f455243313936373a206e657720696d706c656d656e746174696f6e206973206e60008201527f6f74206120636f6e747261637400000000000000000000000000000000000000602082015250565b7f4f776e61626c653a2063616c6c6572206973206e6f7420746865206f776e6572600082015250565b7f546865207265736f75726365206973206e6f742073686172656420776974682060008201527f7468697320757365722e00000000000000000000000000000000000000000000602082015250565b7f416464726573733a2064656c65676174652063616c6c20746f206e6f6e2d636f60008201527f6e74726163740000000000000000000000000000000000000000000000000000602082015250565b7f496e697469616c697a61626c653a20636f6e7472616374206973206e6f74206960008201527f6e697469616c697a696e67000000000000000000000000000000000000000000602082015250565b612de68161278d565b8114612df157600080fd5b50565b612dfd8161279f565b8114612e0857600080fd5b50565b612e14816127ab565b8114612e1f57600080fd5b50565b612e2b816127b5565b8114612e3657600080fd5b5056fe416464726573733a206c6f772d6c6576656c2064656c65676174652063616c6c206661696c6564a264697066735822122086326cac839189acbb5c0f17571fcfda75eb6ee66747bca703174049241c792964736f6c63430008020033",
  "immutableReferences": {
    "1098": [
      {
        "length": 32,
        "start": 711
      },
      {
        "length": 32,
        "start": 854
      },
      {
        "length": 32,
        "start": 2042
      },
      {
        "length": 32,
        "start": 2185
      },
      {
        "length": 32,
        "start": 2361
      }
    ]
  },
  "source": "// SPDX-License-Identifier: GPL-3.0\npragma solidity ^0.8.0;\n\nimport \"@openzeppelin/contracts-upgradeable/proxy/utils/Initializable.sol\";\nimport \"@openzeppelin/contracts-upgradeable/proxy/utils/UUPSUpgradeable.sol\";\nimport \"@openzeppelin/contracts-upgradeable/access/OwnableUpgradeable.sol\";\nimport \"@openzeppelin/contracts-upgradeable/access/AccessControlUpgradeable.sol\";\nimport \"./Consent.sol\";\n\ncontract Access is Initializable, UUPSUpgradeable, OwnableUpgradeable {\n\n    struct ResourceAccess {\n        address user;\n        address researcher;\n        bytes32 resourceShared;\n        uint256 sharedDate;\n        bool shared;\n        uint index;\n    }\n\n    event GiveAccess (\n        bytes32 resource,\n        bytes32 consentId,\n        address researcher,\n        address resourceOwner\n    );\n\n    event RevokeAccess (\n        bytes32 resource,\n        bytes32 consentId,\n        address researcher\n    );\n\n    Consent public consent;\n    mapping (bytes32 => mapping(bytes32 => ResourceAccess)) resourcesDetailsByConsent;\n    mapping (bytes32 => bytes32[]) resourcesByConsent;\n    mapping (bytes32 => mapping(bytes32 => mapping(address => bool))) resouceAccess;\n\n    function initialize(Consent _consent) initializer public {\n        consent = _consent;\n        __Ownable_init();\n        __UUPSUpgradeable_init();\n    }\n\n    function _authorizeUpgrade(address) internal override onlyOwner {}\n\n    function giveAccess (bytes32 resource, bytes32 consentId, address researcher) external {\n        require(consent.getConsent(consentId, msg.sender), \"Consent not registered\");\n\n        if (!resourcesDetailsByConsent[consentId][resource].shared ) {\n            resourcesByConsent[consentId].push(resource);\n            resourcesDetailsByConsent[consentId][resource].user = msg.sender;\n            resourcesDetailsByConsent[consentId][resource].resourceShared = resource;\n            resourcesDetailsByConsent[consentId][resource].sharedDate = block.timestamp;\n            resourcesDetailsByConsent[consentId][resource].shared = true;\n            resourcesDetailsByConsent[consentId][resource].index = resourcesByConsent[consentId].length - 1;\n        }\n\n        resouceAccess[consentId][resource][researcher] = true;\n\n        emit GiveAccess(resource, consentId, researcher, msg.sender);\n    }\n\n    function revokeAccess (bytes32 resource, bytes32 consentId, address researcher) external {\n        require(resourcesDetailsByConsent[consentId][resource].user == msg.sender, \"You are not the resource owner.\");\n        require(resouceAccess[consentId][resource][researcher], \"The resource is not shared with this user.\");\n\n        resouceAccess[consentId][resource][researcher] = false;\n\n        emit RevokeAccess(resource, consentId, researcher);\n    }\n\n    function checkAccess (bytes32 resource, bytes32 consentId) external view returns (bool) {\n        require(resourcesDetailsByConsent[consentId][resource].sharedDate != 0, \n            \"Resource is not registered in consent\");\n        require(resouceAccess[consentId][resource][msg.sender], \"You don't have permission over this resource\");\n\n        return resourcesDetailsByConsent[consentId][resource].shared;\n    }\n\n    function getResourceByConsent (bytes32 consentId) external view returns (address[] memory, bytes32[] memory)\n    {\n        bytes32[] memory _resourcesByConsent = resourcesByConsent[consentId];\n\n        address[] memory owners_ = new address[](_resourcesByConsent.length);\n        bytes32[] memory resources_ = new bytes32[](_resourcesByConsent.length);\n\n        for (uint i = 0; i < _resourcesByConsent.length; i++) {\n            if (resourcesDetailsByConsent[consentId][_resourcesByConsent[i]].shared && \n                resouceAccess[consentId][_resourcesByConsent[i]][msg.sender]) \n            {\n                owners_[i] = resourcesDetailsByConsent[consentId][_resourcesByConsent[i]].user;\n                resources_[i] = resourcesDetailsByConsent[consentId][_resourcesByConsent[i]].resourceShared;\n            }\n        }\n\n        return (owners_, resources_);\n    }\n}\n",
  "sourcePath": "C:\\Users\\Hector Zapata\\OneDrive\\Escritorio\\BHSmartContracts-dev\\src\\HealthDAO\\contracts\\Access.sol",
  "compiler": {
    "name": "solc",
    "version": "0.8.2+commit.661d1103.Linux.g++"
  },
  "schemaVersion": "3.4.7",
  "updatedAt": "2022-08-05T16:11:16.863Z",
  "networkType": "ethereum",
  "devdoc": {
    "kind": "dev",
    "methods": {
      "owner()": {
        "details": "Returns the address of the current owner."
      },
      "proxiableUUID()": {
        "details": "Implementation of the ERC1822 {proxiableUUID} function. This returns the storage slot used by the implementation. It is used to validate that the this implementation remains valid after an upgrade. IMPORTANT: A proxy pointing at a proxiable contract should not be considered proxiable itself, because this risks bricking a proxy that upgrades to it, by delegating to itself until out of gas. Thus it is critical that this function revert if invoked through a proxy. This is guaranteed by the `notDelegated` modifier."
      },
      "renounceOwnership()": {
        "details": "Leaves the contract without owner. It will not be possible to call `onlyOwner` functions anymore. Can only be called by the current owner. NOTE: Renouncing ownership will leave the contract without an owner, thereby removing any functionality that is only available to the owner."
      },
      "transferOwnership(address)": {
        "details": "Transfers ownership of the contract to a new account (`newOwner`). Can only be called by the current owner."
      },
      "upgradeTo(address)": {
        "details": "Upgrade the implementation of the proxy to `newImplementation`. Calls {_authorizeUpgrade}. Emits an {Upgraded} event."
      },
      "upgradeToAndCall(address,bytes)": {
        "details": "Upgrade the implementation of the proxy to `newImplementation`, and subsequently execute the function call encoded in `data`. Calls {_authorizeUpgrade}. Emits an {Upgraded} event."
      }
    },
    "version": 1
  },
  "userdoc": {
    "kind": "user",
    "methods": {},
    "version": 1
  }
}