{
  "contractName": "Consent",
  "abi": [
    {
      "anonymous": false,
      "inputs": [
        {
          "indexed": false,
          "internalType": "bytes32",
          "name": "consentId",
          "type": "bytes32"
        },
        {
          "indexed": false,
          "internalType": "address",
          "name": "addressConsent",
          "type": "address"
        },
        {
          "indexed": false,
          "internalType": "address",
          "name": "user",
          "type": "address"
        }
      ],
      "name": "ADDPGPKey",
      "type": "event"
    },
    {
      "anonymous": false,
      "inputs": [
        {
          "indexed": false,
          "internalType": "address",
          "name": "previousAdmin",
          "type": "address"
        },
        {
          "indexed": false,
          "internalType": "address",
          "name": "newAdmin",
          "type": "address"
        }
      ],
      "name": "AdminChanged",
      "type": "event"
    },
    {
      "anonymous": false,
      "inputs": [
        {
          "indexed": true,
          "internalType": "address",
          "name": "beacon",
          "type": "address"
        }
      ],
      "name": "BeaconUpgraded",
      "type": "event"
    },
    {
      "anonymous": false,
      "inputs": [
        {
          "indexed": false,
          "internalType": "uint8",
          "name": "version",
          "type": "uint8"
        }
      ],
      "name": "Initialized",
      "type": "event"
    },
    {
      "anonymous": false,
      "inputs": [
        {
          "indexed": true,
          "internalType": "address",
          "name": "previousOwner",
          "type": "address"
        },
        {
          "indexed": true,
          "internalType": "address",
          "name": "newOwner",
          "type": "address"
        }
      ],
      "name": "OwnershipTransferred",
      "type": "event"
    },
    {
      "anonymous": false,
      "inputs": [
        {
          "indexed": false,
          "internalType": "bytes32",
          "name": "consentId",
          "type": "bytes32"
        },
        {
          "indexed": false,
          "internalType": "bool",
          "name": "status",
          "type": "bool"
        },
        {
          "indexed": false,
          "internalType": "address",
          "name": "user",
          "type": "address"
        }
      ],
      "name": "UpdateConsent",
      "type": "event"
    },
    {
      "anonymous": false,
      "inputs": [
        {
          "indexed": true,
          "internalType": "address",
          "name": "implementation",
          "type": "address"
        }
      ],
      "name": "Upgraded",
      "type": "event"
    },
    {
      "inputs": [],
      "name": "owner",
      "outputs": [
        {
          "internalType": "address",
          "name": "",
          "type": "address"
        }
      ],
      "stateMutability": "view",
      "type": "function",
      "constant": true
    },
    {
      "inputs": [],
      "name": "proxiableUUID",
      "outputs": [
        {
          "internalType": "bytes32",
          "name": "",
          "type": "bytes32"
        }
      ],
      "stateMutability": "view",
      "type": "function",
      "constant": true
    },
    {
      "inputs": [],
      "name": "renounceOwnership",
      "outputs": [],
      "stateMutability": "nonpayable",
      "type": "function"
    },
    {
      "inputs": [
        {
          "internalType": "address",
          "name": "newOwner",
          "type": "address"
        }
      ],
      "name": "transferOwnership",
      "outputs": [],
      "stateMutability": "nonpayable",
      "type": "function"
    },
    {
      "inputs": [
        {
          "internalType": "address",
          "name": "newImplementation",
          "type": "address"
        }
      ],
      "name": "upgradeTo",
      "outputs": [],
      "stateMutability": "nonpayable",
      "type": "function"
    },
    {
      "inputs": [
        {
          "internalType": "address",
          "name": "newImplementation",
          "type": "address"
        },
        {
          "internalType": "bytes",
          "name": "data",
          "type": "bytes"
        }
      ],
      "name": "upgradeToAndCall",
      "outputs": [],
      "stateMutability": "payable",
      "type": "function",
      "payable": true
    },
    {
      "inputs": [],
      "name": "initialize",
      "outputs": [],
      "stateMutability": "nonpayable",
      "type": "function"
    },
    {
      "inputs": [
        {
          "internalType": "bytes32",
          "name": "consentId",
          "type": "bytes32"
        },
        {
          "internalType": "address",
          "name": "user",
          "type": "address"
        }
      ],
      "name": "getConsent",
      "outputs": [
        {
          "internalType": "bool",
          "name": "",
          "type": "bool"
        }
      ],
      "stateMutability": "view",
      "type": "function",
      "constant": true
    },
    {
      "inputs": [
        {
          "internalType": "bytes32",
          "name": "consentId",
          "type": "bytes32"
        },
        {
          "internalType": "bool",
          "name": "status",
          "type": "bool"
        }
      ],
      "name": "updateConsent",
      "outputs": [],
      "stateMutability": "nonpayable",
      "type": "function"
    },
    {
      "inputs": [
        {
          "internalType": "bytes32",
          "name": "consentId",
          "type": "bytes32"
        },
        {
          "internalType": "address",
          "name": "addressConsent",
          "type": "address"
        },
        {
          "internalType": "string",
          "name": "publicPGPKey",
          "type": "string"
        }
      ],
      "name": "addPGPKey",
      "outputs": [],
      "stateMutability": "nonpayable",
      "type": "function"
    },
    {
      "inputs": [
        {
          "internalType": "bytes32",
          "name": "consentId",
          "type": "bytes32"
        }
      ],
      "name": "getPGPKeys",
      "outputs": [
        {
          "internalType": "address[]",
          "name": "",
          "type": "address[]"
        },
        {
          "internalType": "string[]",
          "name": "",
          "type": "string[]"
        }
      ],
      "stateMutability": "view",
      "type": "function",
      "constant": true
    }
  ],
  "bytecode": "0x60a06040523073ffffffffffffffffffffffffffffffffffffffff1660809073ffffffffffffffffffffffffffffffffffffffff166c010000000000000000000000000281525034801561005257600080fd5b506080516c010000000000000000000000009004612b9761009a60003960008181610336015281816103c501528181610834015281816108c301526109730152612b976000f3fe6080604052600436106100b9576000357c0100000000000000000000000000000000000000000000000000000000900480636286d900116100815780636286d900146101a957806368c1791b146101d2578063715018a6146101fb5780638129fc1c146102125780638da5cb5b14610229578063f2fde38b14610254576100b9565b8063053d31dc146100be5780633659cfe6146100fb5780634f031495146101245780634f1ef2861461016257806352d1902d1461017e575b600080fd5b3480156100ca57600080fd5b506100e560048036038101906100e09190611bc2565b61027d565b6040516100f291906120e1565b60405180910390f35b34801561010757600080fd5b50610122600480360381019061011d9190611af3565b610334565b005b34801561013057600080fd5b5061014b60048036038101906101469190611b70565b6104e3565b6040516101599291906120aa565b60405180910390f35b61017c60048036038101906101779190611b1c565b610832565b005b34801561018a57600080fd5b5061019361096f565b6040516101a091906120fc565b60405180910390f35b3480156101b557600080fd5b506101d060048036038101906101cb9190611bfe565b610a28565b005b3480156101de57600080fd5b506101f960048036038101906101f49190611c65565b610d4f565b005b34801561020757600080fd5b50610210610ef8565b005b34801561021e57600080fd5b50610227610f80565b005b34801561023557600080fd5b5061023e61101c565b60405161024b919061208f565b60405180910390f35b34801561026057600080fd5b5061027b60048036038101906102769190611af3565b611046565b005b60008060c960008473ffffffffffffffffffffffffffffffffffffffff1673ffffffffffffffffffffffffffffffffffffffff168152602001908152602001600020600085815260200190815260200160002090506000816001015411610319576040517f08c379a000000000000000000000000000000000000000000000000000000000815260040161031090612222565b60405180910390fd5b8060000160009054906101000a900460ff1691505092915050565b7f000000000000000000000000000000000000000000000000000000000000000073ffffffffffffffffffffffffffffffffffffffff163073ffffffffffffffffffffffffffffffffffffffff1614156103c3576040517f08c379a00000000000000000000000000000000000000000000000000000000081526004016103ba90612202565b60405180910390fd5b7f000000000000000000000000000000000000000000000000000000000000000073ffffffffffffffffffffffffffffffffffffffff1661040261113e565b73ffffffffffffffffffffffffffffffffffffffff1614610458576040517f08c379a000000000000000000000000000000000000000000000000000000000815260040161044f90612242565b60405180910390fd5b61046181611195565b6104e081600067ffffffffffffffff8111156104a6577f4e487b7100000000000000000000000000000000000000000000000000000000600052604160045260246000fd5b6040519080825280601f01601f1916602001820160405280156104d85781602001600182028036833780820191505090505b506000611214565b50565b606080600060c960003373ffffffffffffffffffffffffffffffffffffffff1673ffffffffffffffffffffffffffffffffffffffff168152602001908152602001600020600085815260200190815260200160002090506000816001015411610581576040517f08c379a000000000000000000000000000000000000000000000000000000000815260040161057890612222565b60405180910390fd5b6000816002018054905067ffffffffffffffff8111156105ca577f4e487b7100000000000000000000000000000000000000000000000000000000600052604160045260246000fd5b6040519080825280602002602001820160405280156105fd57816020015b60608152602001906001900390816105e85790505b50905060005b826002018054905081101561079957826004016000846002018381548110610654577f4e487b7100000000000000000000000000000000000000000000000000000000600052603260045260246000fd5b9060005260206000200160009054906101000a900473ffffffffffffffffffffffffffffffffffffffff1673ffffffffffffffffffffffffffffffffffffffff1673ffffffffffffffffffffffffffffffffffffffff16815260200190815260200160002080546106c4906125a5565b80601f01602080910402602001604051908101604052809291908181526020018280546106f0906125a5565b801561073d5780601f106107125761010080835404028352916020019161073d565b820191906000526020600020905b81548152906001019060200180831161072057829003601f168201915b505050505082828151811061077b577f4e487b7100000000000000000000000000000000000000000000000000000000600052603260045260246000fd5b6020026020010181905250808061079190612608565b915050610603565b5081600201818180548060200260200160405190810160405280929190818152602001828054801561082057602002820191906000526020600020905b8160009054906101000a900473ffffffffffffffffffffffffffffffffffffffff1673ffffffffffffffffffffffffffffffffffffffff16815260200190600101908083116107d6575b50505050509150935093505050915091565b7f000000000000000000000000000000000000000000000000000000000000000073ffffffffffffffffffffffffffffffffffffffff163073ffffffffffffffffffffffffffffffffffffffff1614156108c1576040517f08c379a00000000000000000000000000000000000000000000000000000000081526004016108b890612202565b60405180910390fd5b7f000000000000000000000000000000000000000000000000000000000000000073ffffffffffffffffffffffffffffffffffffffff1661090061113e565b73ffffffffffffffffffffffffffffffffffffffff1614610956576040517f08c379a000000000000000000000000000000000000000000000000000000000815260040161094d90612242565b60405180910390fd5b61095f82611195565b61096b82826001611214565b5050565b60007f000000000000000000000000000000000000000000000000000000000000000073ffffffffffffffffffffffffffffffffffffffff163073ffffffffffffffffffffffffffffffffffffffff16146109ff576040517f08c379a00000000000000000000000000000000000000000000000000000000081526004016109f690612282565b60405180910390fd5b7f360894a13ba1a3210667c828492db98dca3e2076cc3735a920a3ca505d382bbc600102905090565b600060c960003373ffffffffffffffffffffffffffffffffffffffff1673ffffffffffffffffffffffffffffffffffffffff1681526020019081526020016000206000858152602001908152602001600020600101541415610abf576040517f08c379a0000000000000000000000000000000000000000000000000000000008152600401610ab6906121e2565b60405180910390fd5b8060c960003373ffffffffffffffffffffffffffffffffffffffff1673ffffffffffffffffffffffffffffffffffffffff168152602001908152602001600020600085815260200190815260200160002060040160008473ffffffffffffffffffffffffffffffffffffffff1673ffffffffffffffffffffffffffffffffffffffff1681526020019081526020016000209080519060200190610b6392919061192c565b5060c960003373ffffffffffffffffffffffffffffffffffffffff1673ffffffffffffffffffffffffffffffffffffffff1681526020019081526020016000206000848152602001908152602001600020600201829080600181540180825580915050600190039060005260206000200160009091909190916101000a81548173ffffffffffffffffffffffffffffffffffffffff021916908373ffffffffffffffffffffffffffffffffffffffff160217905550600160c960003373ffffffffffffffffffffffffffffffffffffffff1673ffffffffffffffffffffffffffffffffffffffff168152602001908152602001600020600085815260200190815260200160002060020180549050610c7b91906124be565b60c960003373ffffffffffffffffffffffffffffffffffffffff1673ffffffffffffffffffffffffffffffffffffffff168152602001908152602001600020600085815260200190815260200160002060030160008473ffffffffffffffffffffffffffffffffffffffff1673ffffffffffffffffffffffffffffffffffffffff168152602001908152602001600020819055507f55284b9fe487cbeae59b6cbd16bb8079e08c477eeb98771eb469d3feedb14858838333604051610d4293929190612117565b60405180910390a1505050565b80151560c960003373ffffffffffffffffffffffffffffffffffffffff1673ffffffffffffffffffffffffffffffffffffffff168152602001908152602001600020600084815260200190815260200160002060000160009054906101000a900460ff1615151415610df6576040517f08c379a0000000000000000000000000000000000000000000000000000000008152600401610ded90612262565b60405180910390fd5b8060c960003373ffffffffffffffffffffffffffffffffffffffff1673ffffffffffffffffffffffffffffffffffffffff168152602001908152602001600020600084815260200190815260200160002060000160006101000a81548160ff0219169083151502179055504260c960003373ffffffffffffffffffffffffffffffffffffffff1673ffffffffffffffffffffffffffffffffffffffff1681526020019081526020016000206000848152602001908152602001600020600101819055507fd168ab7b0e19c788c967e04e87f1bfd047e855d6a9067a3b8d99ee7ba7e80351828233604051610eec9392919061214e565b60405180910390a15050565b610f006113ad565b73ffffffffffffffffffffffffffffffffffffffff16610f1e61101c565b73ffffffffffffffffffffffffffffffffffffffff1614610f74576040517f08c379a0000000000000000000000000000000000000000000000000000000008152600401610f6b90612322565b60405180910390fd5b610f7e60006113b5565b565b6000610f8c600161147b565b90508015610fb0576001600060016101000a81548160ff0219169083151502179055505b610fb861156b565b610fc06115c4565b80156110195760008060016101000a81548160ff0219169083151502179055507f7f26b83ff96e1f2b6a682f133852f6798a09c465da95921460cefb384740249860016040516110109190612185565b60405180910390a15b50565b6000609760009054906101000a900473ffffffffffffffffffffffffffffffffffffffff16905090565b61104e6113ad565b73ffffffffffffffffffffffffffffffffffffffff1661106c61101c565b73ffffffffffffffffffffffffffffffffffffffff16146110c2576040517f08c379a00000000000000000000000000000000000000000000000000000000081526004016110b990612322565b60405180910390fd5b600073ffffffffffffffffffffffffffffffffffffffff168173ffffffffffffffffffffffffffffffffffffffff161415611132576040517f08c379a0000000000000000000000000000000000000000000000000000000008152600401611129906121c2565b60405180910390fd5b61113b816113b5565b50565b600061116c7f360894a13ba1a3210667c828492db98dca3e2076cc3735a920a3ca505d382bbc600102611615565b60000160009054906101000a900473ffffffffffffffffffffffffffffffffffffffff16905090565b61119d6113ad565b73ffffffffffffffffffffffffffffffffffffffff166111bb61101c565b73ffffffffffffffffffffffffffffffffffffffff1614611211576040517f08c379a000000000000000000000000000000000000000000000000000000000815260040161120890612322565b60405180910390fd5b50565b6112407f4910fdfa16fed3260ed0e7147f7cc6da11a60208b5b9406d12a635614ffd914360010261161f565b60000160009054906101000a900460ff16156112645761125f83611629565b6113a8565b8273ffffffffffffffffffffffffffffffffffffffff166352d1902d6040518163ffffffff167c010000000000000000000000000000000000000000000000000000000002815260040160206040518083038186803b1580156112c657600080fd5b505afa9250505080156112f757506040513d601f19601f820116820180604052508101906112f49190611b99565b60015b611336576040517f08c379a000000000000000000000000000000000000000000000000000000000815260040161132d906122e2565b60405180910390fd5b7f360894a13ba1a3210667c828492db98dca3e2076cc3735a920a3ca505d382bbc600102811461139b576040517f08c379a0000000000000000000000000000000000000000000000000000000008152600401611392906122a2565b60405180910390fd5b506113a78383836116e2565b5b505050565b600033905090565b6000609760009054906101000a900473ffffffffffffffffffffffffffffffffffffffff16905081609760006101000a81548173ffffffffffffffffffffffffffffffffffffffff021916908373ffffffffffffffffffffffffffffffffffffffff1602179055508173ffffffffffffffffffffffffffffffffffffffff168173ffffffffffffffffffffffffffffffffffffffff167f8be0079c531659141344cd1fd0a4f28419497f9722a3daafe3b4186f6b6457e060405160405180910390a35050565b60008060019054906101000a900460ff16156114f25760018260ff161480156114aa57506114a83061170e565b155b6114e9576040517f08c379a00000000000000000000000000000000000000000000000000000000081526004016114e0906122c2565b60405180910390fd5b60009050611566565b8160ff1660008054906101000a900460ff1660ff1610611547576040517f08c379a000000000000000000000000000000000000000000000000000000000815260040161153e906122c2565b60405180910390fd5b816000806101000a81548160ff021916908360ff160217905550600190505b919050565b600060019054906101000a900460ff166115ba576040517f08c379a00000000000000000000000000000000000000000000000000000000081526004016115b190612362565b60405180910390fd5b6115c2611731565b565b600060019054906101000a900460ff16611613576040517f08c379a000000000000000000000000000000000000000000000000000000000815260040161160a90612362565b60405180910390fd5b565b6000819050919050565b6000819050919050565b6116328161170e565b611671576040517f08c379a000000000000000000000000000000000000000000000000000000000815260040161166890612302565b60405180910390fd5b8061169e7f360894a13ba1a3210667c828492db98dca3e2076cc3735a920a3ca505d382bbc600102611615565b60000160006101000a81548173ffffffffffffffffffffffffffffffffffffffff021916908373ffffffffffffffffffffffffffffffffffffffff16021790555050565b6116eb83611792565b6000825111806116f85750805b156117095761170783836117e1565b505b505050565b6000808273ffffffffffffffffffffffffffffffffffffffff163b119050919050565b600060019054906101000a900460ff16611780576040517f08c379a000000000000000000000000000000000000000000000000000000000815260040161177790612362565b60405180910390fd5b61179061178b6113ad565b6113b5565b565b61179b81611629565b8073ffffffffffffffffffffffffffffffffffffffff167fbc7cd75a20ee27fd9adebab32041f755214dbc6bffa90cc0225b39da2e5c2d3b60405160405180910390a250565b60606117ec8361170e565b61182b576040517f08c379a000000000000000000000000000000000000000000000000000000000815260040161182290612342565b60405180910390fd5b6000808473ffffffffffffffffffffffffffffffffffffffff16846040516118539190612078565b600060405180830381855af49150503d806000811461188e576040519150601f19603f3d011682016040523d82523d6000602084013e611893565b606091505b50915091506118bb8282604051806060016040528060278152602001612b3b602791396118c5565b9250505092915050565b606083156118d557829050611925565b6000835111156118e85782518084602001fd5b816040517f08c379a000000000000000000000000000000000000000000000000000000000815260040161191c91906121a0565b60405180910390fd5b9392505050565b828054611938906125a5565b90600052602060002090601f01602090048101928261195a57600085556119a1565b82601f1061197357805160ff19168380011785556119a1565b828001600101855582156119a1579182015b828111156119a0578251825591602001919060010190611985565b5b5090506119ae91906119b2565b5090565b5b808211156119cb5760008160009055506001016119b3565b5090565b60006119e26119dd846123a7565b612382565b9050828152602081018484840111156119fa57600080fd5b611a05848285612563565b509392505050565b6000611a20611a1b846123d8565b612382565b905082815260208101848484011115611a3857600080fd5b611a43848285612563565b509392505050565b600081359050611a5a81612af5565b92915050565b600081359050611a6f81612b0c565b92915050565b600081359050611a8481612b23565b92915050565b600081519050611a9981612b23565b92915050565b600082601f830112611ab057600080fd5b8135611ac08482602086016119cf565b91505092915050565b600082601f830112611ada57600080fd5b8135611aea848260208601611a0d565b91505092915050565b600060208284031215611b0557600080fd5b6000611b1384828501611a4b565b91505092915050565b60008060408385031215611b2f57600080fd5b6000611b3d85828601611a4b565b925050602083013567ffffffffffffffff811115611b5a57600080fd5b611b6685828601611a9f565b9150509250929050565b600060208284031215611b8257600080fd5b6000611b9084828501611a75565b91505092915050565b600060208284031215611bab57600080fd5b6000611bb984828501611a8a565b91505092915050565b60008060408385031215611bd557600080fd5b6000611be385828601611a75565b9250506020611bf485828601611a4b565b9150509250929050565b600080600060608486031215611c1357600080fd5b6000611c2186828701611a75565b9350506020611c3286828701611a4b565b925050604084013567ffffffffffffffff811115611c4f57600080fd5b611c5b86828701611ac9565b9150509250925092565b60008060408385031215611c7857600080fd5b6000611c8685828601611a75565b9250506020611c9785828601611a60565b9150509250929050565b6000611cad8383611ccd565b60208301905092915050565b6000611cc58383611e1c565b905092915050565b611cd6816124f2565b82525050565b611ce5816124f2565b82525050565b6000611cf682612429565b611d00818561246f565b9350611d0b83612409565b8060005b83811015611d3c578151611d238882611ca1565b9750611d2e83612455565b925050600181019050611d0f565b5085935050505092915050565b6000611d5482612434565b611d5e8185612480565b935083602082028501611d7085612419565b8060005b85811015611dac5784840389528151611d8d8582611cb9565b9450611d9883612462565b925060208a01995050600181019050611d74565b50829750879550505050505092915050565b611dc781612504565b82525050565b611dd681612510565b82525050565b6000611de78261243f565b611df18185612491565b9350611e01818560208601612572565b80840191505092915050565b611e1681612551565b82525050565b6000611e278261244a565b611e31818561249c565b9350611e41818560208601612572565b611e4a816126de565b840191505092915050565b6000611e608261244a565b611e6a81856124ad565b9350611e7a818560208601612572565b611e83816126de565b840191505092915050565b6000611e9b6026836124ad565b9150611ea6826126ef565b604082019050919050565b6000611ebe602a836124ad565b9150611ec98261273e565b604082019050919050565b6000611ee1602c836124ad565b9150611eec8261278d565b604082019050919050565b6000611f046016836124ad565b9150611f0f826127dc565b602082019050919050565b6000611f27602c836124ad565b9150611f3282612805565b604082019050919050565b6000611f4a6023836124ad565b9150611f5582612854565b604082019050919050565b6000611f6d6038836124ad565b9150611f78826128a3565b604082019050919050565b6000611f906029836124ad565b9150611f9b826128f2565b604082019050919050565b6000611fb3602e836124ad565b9150611fbe82612941565b604082019050919050565b6000611fd6602e836124ad565b9150611fe182612990565b604082019050919050565b6000611ff9602d836124ad565b9150612004826129df565b604082019050919050565b600061201c6020836124ad565b915061202782612a2e565b602082019050919050565b600061203f6026836124ad565b915061204a82612a57565b604082019050919050565b6000612062602b836124ad565b915061206d82612aa6565b604082019050919050565b60006120848284611ddc565b915081905092915050565b60006020820190506120a46000830184611cdc565b92915050565b600060408201905081810360008301526120c48185611ceb565b905081810360208301526120d88184611d49565b90509392505050565b60006020820190506120f66000830184611dbe565b92915050565b60006020820190506121116000830184611dcd565b92915050565b600060608201905061212c6000830186611dcd565b6121396020830185611cdc565b6121466040830184611cdc565b949350505050565b60006060820190506121636000830186611dcd565b6121706020830185611dbe565b61217d6040830184611cdc565b949350505050565b600060208201905061219a6000830184611e0d565b92915050565b600060208201905081810360008301526121ba8184611e55565b905092915050565b600060208201905081810360008301526121db81611e8e565b9050919050565b600060208201905081810360008301526121fb81611eb1565b9050919050565b6000602082019050818103600083015261221b81611ed4565b9050919050565b6000602082019050818103600083015261223b81611ef7565b9050919050565b6000602082019050818103600083015261225b81611f1a565b9050919050565b6000602082019050818103600083015261227b81611f3d565b9050919050565b6000602082019050818103600083015261229b81611f60565b9050919050565b600060208201905081810360008301526122bb81611f83565b9050919050565b600060208201905081810360008301526122db81611fa6565b9050919050565b600060208201905081810360008301526122fb81611fc9565b9050919050565b6000602082019050818103600083015261231b81611fec565b9050919050565b6000602082019050818103600083015261233b8161200f565b9050919050565b6000602082019050818103600083015261235b81612032565b9050919050565b6000602082019050818103600083015261237b81612055565b9050919050565b600061238c61239d565b905061239882826125d7565b919050565b6000604051905090565b600067ffffffffffffffff8211156123c2576123c16126af565b5b6123cb826126de565b9050602081019050919050565b600067ffffffffffffffff8211156123f3576123f26126af565b5b6123fc826126de565b9050602081019050919050565b6000819050602082019050919050565b6000819050602082019050919050565b600081519050919050565b600081519050919050565b600081519050919050565b600081519050919050565b6000602082019050919050565b6000602082019050919050565b600082825260208201905092915050565b600082825260208201905092915050565b600081905092915050565b600082825260208201905092915050565b600082825260208201905092915050565b60006124c98261253a565b91506124d48361253a565b9250828210156124e7576124e6612651565b5b828203905092915050565b60006124fd8261251a565b9050919050565b60008115159050919050565b6000819050919050565b600073ffffffffffffffffffffffffffffffffffffffff82169050919050565b6000819050919050565b600060ff82169050919050565b600061255c82612544565b9050919050565b82818337600083830152505050565b60005b83811015612590578082015181840152602081019050612575565b8381111561259f576000848401525b50505050565b600060028204905060018216806125bd57607f821691505b602082108114156125d1576125d0612680565b5b50919050565b6125e0826126de565b810181811067ffffffffffffffff821117156125ff576125fe6126af565b5b80604052505050565b60006126138261253a565b91507fffffffffffffffffffffffffffffffffffffffffffffffffffffffffffffffff82141561264657612645612651565b5b600182019050919050565b7f4e487b7100000000000000000000000000000000000000000000000000000000600052601160045260246000fd5b7f4e487b7100000000000000000000000000000000000000000000000000000000600052602260045260246000fd5b7f4e487b7100000000000000000000000000000000000000000000000000000000600052604160045260246000fd5b6000601f19601f8301169050919050565b7f4f776e61626c653a206e6577206f776e657220697320746865207a65726f206160008201527f6464726573730000000000000000000000000000000000000000000000000000602082015250565b7f596f75206861766520746f20617070726f7665206f722072656a65637420746860008201527f6520636f6e73656e742e00000000000000000000000000000000000000000000602082015250565b7f46756e6374696f6e206d7573742062652063616c6c6564207468726f7567682060008201527f64656c656761746563616c6c0000000000000000000000000000000000000000602082015250565b7f436f6e73656e74206e6f74207265676973746572656400000000000000000000600082015250565b7f46756e6374696f6e206d7573742062652063616c6c6564207468726f7567682060008201527f6163746976652070726f78790000000000000000000000000000000000000000602082015250565b7f53746174757320636f6e73656e7420697320616c72656164792073657474656460008201527f2075700000000000000000000000000000000000000000000000000000000000602082015250565b7f555550535570677261646561626c653a206d757374206e6f742062652063616c60008201527f6c6564207468726f7567682064656c656761746563616c6c0000000000000000602082015250565b7f45524331393637557067726164653a20756e737570706f727465642070726f7860008201527f6961626c65555549440000000000000000000000000000000000000000000000602082015250565b7f496e697469616c697a61626c653a20636f6e747261637420697320616c72656160008201527f647920696e697469616c697a6564000000000000000000000000000000000000602082015250565b7f45524331393637557067726164653a206e657720696d706c656d656e7461746960008201527f6f6e206973206e6f742055555053000000000000000000000000000000000000602082015250565b7f455243313936373a206e657720696d706c656d656e746174696f6e206973206e60008201527f6f74206120636f6e747261637400000000000000000000000000000000000000602082015250565b7f4f776e61626c653a2063616c6c6572206973206e6f7420746865206f776e6572600082015250565b7f416464726573733a2064656c65676174652063616c6c20746f206e6f6e2d636f60008201527f6e74726163740000000000000000000000000000000000000000000000000000602082015250565b7f496e697469616c697a61626c653a20636f6e7472616374206973206e6f74206960008201527f6e697469616c697a696e67000000000000000000000000000000000000000000602082015250565b612afe816124f2565b8114612b0957600080fd5b50565b612b1581612504565b8114612b2057600080fd5b50565b612b2c81612510565b8114612b3757600080fd5b5056fe416464726573733a206c6f772d6c6576656c2064656c65676174652063616c6c206661696c6564a264697066735822122018e044be287472e975bceea219b450a613207c448261362a473df49d0b61c47b64736f6c63430008020033",
  "immutableReferences": {
    "1098": [
      {
        "length": 32,
        "start": 822
      },
      {
        "length": 32,
        "start": 965
      },
      {
        "length": 32,
        "start": 2100
      },
      {
        "length": 32,
        "start": 2243
      },
      {
        "length": 32,
        "start": 2419
      }
    ]
  },
  "source": "// SPDX-License-Identifier: GPL-3.0\npragma solidity ^0.8.0;\n\nimport \"@openzeppelin/contracts-upgradeable/proxy/utils/Initializable.sol\";\nimport \"@openzeppelin/contracts-upgradeable/proxy/utils/UUPSUpgradeable.sol\";\nimport \"@openzeppelin/contracts-upgradeable/access/OwnableUpgradeable.sol\";\nimport \"@openzeppelin/contracts-upgradeable/access/AccessControlUpgradeable.sol\";\n\ncontract Consent is Initializable, UUPSUpgradeable, OwnableUpgradeable {\n\n    struct UserConsent {\n        bool consented;\n        uint256 consentedDate;\n        address[] addressConsent;\n        mapping (address => uint) addressConsentIndex;\n        mapping (address => string) publicPGPKeys;\n    }\n\n    event UpdateConsent (\n        bytes32 consentId,\n        bool status,\n        address user\n    );\n\n    event ADDPGPKey (\n        bytes32 consentId,\n        address addressConsent,\n        address user\n    );\n\n    mapping(address => mapping (bytes32=> UserConsent)) users;\n\n    function initialize() initializer public {\n        __Ownable_init();\n        __UUPSUpgradeable_init();\n    }\n\n    function _authorizeUpgrade(address) internal override onlyOwner {}\n\n    function getConsent (bytes32 consentId, address user) external view returns (bool) {\n        UserConsent storage userConsent = users[user][consentId];\n\n        require(userConsent.consentedDate > 0, \"Consent not registered\");\n\n        return userConsent.consented;\n    }\n\n    function updateConsent (bytes32 consentId, bool status) external {\n        require(users[msg.sender][consentId].consented != status, \"Status consent is already setted up\");\n\n        users[msg.sender][consentId].consented = status;\n        users[msg.sender][consentId].consentedDate = block.timestamp;\n\n        emit UpdateConsent(consentId, status, msg.sender);\n    }\n\n    function addPGPKey (bytes32 consentId, address addressConsent, string memory publicPGPKey) external {\n        require(users[msg.sender][consentId].consentedDate != 0, \"You have to approve or reject the consent.\");\n        \n        \n        users[msg.sender][consentId].publicPGPKeys[addressConsent] = publicPGPKey;\n        users[msg.sender][consentId].addressConsent.push(addressConsent);\n        users[msg.sender][consentId].addressConsentIndex[addressConsent] = \n            users[msg.sender][consentId].addressConsent.length - 1;\n\n        emit ADDPGPKey(consentId, addressConsent, msg.sender);\n    }\n\n    function getPGPKeys (bytes32 consentId) external view returns (address[] memory, string[] memory){\n        UserConsent storage userConsent = users[msg.sender][consentId];\n\n        require(userConsent.consentedDate > 0, \"Consent not registered\");\n\n        string[] memory PGPKeys_ = new string[](userConsent.addressConsent.length);\n\n        for (uint i = 0; i < userConsent.addressConsent.length; i ++) {\n            PGPKeys_[i] =  userConsent.publicPGPKeys[userConsent.addressConsent[i]];\n        }\n\n        return (userConsent.addressConsent, PGPKeys_);\n    }\n}\n",
  "sourcePath": "C:\\Users\\Hector Zapata\\OneDrive\\Escritorio\\BHSmartContracts-dev\\src\\HealthDAO\\contracts\\Consent.sol",
  "compiler": {
    "name": "solc",
    "version": "0.8.2+commit.661d1103.Linux.g++"
  },
  "schemaVersion": "3.4.7",
  "updatedAt": "2022-08-05T16:11:16.846Z",
  "networkType": "ethereum",
  "devdoc": {
    "kind": "dev",
    "methods": {
      "owner()": {
        "details": "Returns the address of the current owner."
      },
      "proxiableUUID()": {
        "details": "Implementation of the ERC1822 {proxiableUUID} function. This returns the storage slot used by the implementation. It is used to validate that the this implementation remains valid after an upgrade. IMPORTANT: A proxy pointing at a proxiable contract should not be considered proxiable itself, because this risks bricking a proxy that upgrades to it, by delegating to itself until out of gas. Thus it is critical that this function revert if invoked through a proxy. This is guaranteed by the `notDelegated` modifier."
      },
      "renounceOwnership()": {
        "details": "Leaves the contract without owner. It will not be possible to call `onlyOwner` functions anymore. Can only be called by the current owner. NOTE: Renouncing ownership will leave the contract without an owner, thereby removing any functionality that is only available to the owner."
      },
      "transferOwnership(address)": {
        "details": "Transfers ownership of the contract to a new account (`newOwner`). Can only be called by the current owner."
      },
      "upgradeTo(address)": {
        "details": "Upgrade the implementation of the proxy to `newImplementation`. Calls {_authorizeUpgrade}. Emits an {Upgraded} event."
      },
      "upgradeToAndCall(address,bytes)": {
        "details": "Upgrade the implementation of the proxy to `newImplementation`, and subsequently execute the function call encoded in `data`. Calls {_authorizeUpgrade}. Emits an {Upgraded} event."
      }
    },
    "version": 1
  },
  "userdoc": {
    "kind": "user",
    "methods": {},
    "version": 1
  }
}