{
  "contractName": "Access",
  "abi": [
    {
      "anonymous": false,
      "inputs": [
        {
          "indexed": false,
          "internalType": "address",
          "name": "previousAdmin",
          "type": "address"
        },
        {
          "indexed": false,
          "internalType": "address",
          "name": "newAdmin",
          "type": "address"
        }
      ],
      "name": "AdminChanged",
      "type": "event"
    },
    {
      "anonymous": false,
      "inputs": [
        {
          "indexed": true,
          "internalType": "address",
          "name": "beacon",
          "type": "address"
        }
      ],
      "name": "BeaconUpgraded",
      "type": "event"
    },
    {
      "anonymous": false,
      "inputs": [
        {
          "indexed": false,
          "internalType": "string",
          "name": "resource",
          "type": "string"
        },
        {
          "indexed": false,
          "internalType": "bytes32",
          "name": "resourceName",
          "type": "bytes32"
        },
        {
          "indexed": false,
          "internalType": "bytes32",
          "name": "consentId",
          "type": "bytes32"
        },
        {
          "indexed": false,
          "internalType": "address[]",
          "name": "researchers",
          "type": "address[]"
        },
        {
          "indexed": false,
          "internalType": "address",
          "name": "resourceOwner",
          "type": "address"
        }
      ],
      "name": "GiveAccess",
      "type": "event"
    },
    {
      "anonymous": false,
      "inputs": [
        {
          "indexed": false,
          "internalType": "uint8",
          "name": "version",
          "type": "uint8"
        }
      ],
      "name": "Initialized",
      "type": "event"
    },
    {
      "anonymous": false,
      "inputs": [
        {
          "indexed": true,
          "internalType": "address",
          "name": "previousOwner",
          "type": "address"
        },
        {
          "indexed": true,
          "internalType": "address",
          "name": "newOwner",
          "type": "address"
        }
      ],
      "name": "OwnershipTransferred",
      "type": "event"
    },
    {
      "anonymous": false,
      "inputs": [
        {
          "indexed": true,
          "internalType": "address",
          "name": "implementation",
          "type": "address"
        }
      ],
      "name": "Upgraded",
      "type": "event"
    },
    {
      "inputs": [],
      "name": "consent",
      "outputs": [
        {
          "internalType": "contract Consent",
          "name": "",
          "type": "address"
        }
      ],
      "stateMutability": "view",
      "type": "function",
      "constant": true
    },
    {
      "inputs": [],
      "name": "owner",
      "outputs": [
        {
          "internalType": "address",
          "name": "",
          "type": "address"
        }
      ],
      "stateMutability": "view",
      "type": "function",
      "constant": true
    },
    {
      "inputs": [],
      "name": "proxiableUUID",
      "outputs": [
        {
          "internalType": "bytes32",
          "name": "",
          "type": "bytes32"
        }
      ],
      "stateMutability": "view",
      "type": "function",
      "constant": true
    },
    {
      "inputs": [],
      "name": "renounceOwnership",
      "outputs": [],
      "stateMutability": "nonpayable",
      "type": "function"
    },
    {
      "inputs": [
        {
          "internalType": "address",
          "name": "newOwner",
          "type": "address"
        }
      ],
      "name": "transferOwnership",
      "outputs": [],
      "stateMutability": "nonpayable",
      "type": "function"
    },
    {
      "inputs": [
        {
          "internalType": "address",
          "name": "newImplementation",
          "type": "address"
        }
      ],
      "name": "upgradeTo",
      "outputs": [],
      "stateMutability": "nonpayable",
      "type": "function"
    },
    {
      "inputs": [
        {
          "internalType": "address",
          "name": "newImplementation",
          "type": "address"
        },
        {
          "internalType": "bytes",
          "name": "data",
          "type": "bytes"
        }
      ],
      "name": "upgradeToAndCall",
      "outputs": [],
      "stateMutability": "payable",
      "type": "function",
      "payable": true
    },
    {
      "inputs": [
        {
          "internalType": "contract Consent",
          "name": "_consent",
          "type": "address"
        }
      ],
      "name": "initialize",
      "outputs": [],
      "stateMutability": "nonpayable",
      "type": "function"
    },
    {
      "inputs": [
        {
          "internalType": "string",
          "name": "resource",
          "type": "string"
        },
        {
          "internalType": "bytes32",
          "name": "consentId",
          "type": "bytes32"
        },
        {
          "internalType": "address[]",
          "name": "researchers",
          "type": "address[]"
        },
        {
          "internalType": "bytes32",
          "name": "resourceName",
          "type": "bytes32"
        }
      ],
      "name": "giveAccess",
      "outputs": [],
      "stateMutability": "nonpayable",
      "type": "function"
    },
    {
      "inputs": [
        {
          "internalType": "string",
          "name": "resource",
          "type": "string"
        },
        {
          "internalType": "bytes32",
          "name": "consentId",
          "type": "bytes32"
        }
      ],
      "name": "checkAccess",
      "outputs": [
        {
          "internalType": "bool",
          "name": "",
          "type": "bool"
        }
      ],
      "stateMutability": "view",
      "type": "function",
      "constant": true
    },
    {
      "inputs": [
        {
          "internalType": "bytes32",
          "name": "consentId",
          "type": "bytes32"
        }
      ],
      "name": "getResourceByConsent",
      "outputs": [
        {
          "internalType": "address[]",
          "name": "",
          "type": "address[]"
        },
        {
          "internalType": "string[]",
          "name": "",
          "type": "string[]"
        },
        {
          "internalType": "bytes32[]",
          "name": "",
          "type": "bytes32[]"
        }
      ],
      "stateMutability": "view",
      "type": "function",
      "constant": true
    }
  ],
  "bytecode": "0x60a06040523073ffffffffffffffffffffffffffffffffffffffff1660809073ffffffffffffffffffffffffffffffffffffffff166c010000000000000000000000000281525034801561005257600080fd5b506080516c01000000000000000000000000900461338e61009a600039600081816102940152818161032301528181610443015281816104d20152610582015261338e6000f3fe6080604052600436106100b9576000357c0100000000000000000000000000000000000000000000000000000000900480638da5cb5b116100815780638da5cb5b1461018257806399a9857a146101ad578063b3d3404a146101d6578063b4fdb45614610201578063c4d66de814610240578063f2fde38b14610269576100b9565b80633659cfe6146100be5780634f1ef286146100e757806352d1902d14610103578063715018a61461012e5780637d1db44014610145575b600080fd5b3480156100ca57600080fd5b506100e560048036038101906100e091906120ab565b610292565b005b61010160048036038101906100fc91906120d4565b610441565b005b34801561010f57600080fd5b5061011861057e565b60405161012591906127ff565b60405180910390f35b34801561013a57600080fd5b50610143610637565b005b34801561015157600080fd5b5061016c600480360381019061016791906121cc565b6106bf565b60405161017991906127e4565b60405180910390f35b34801561018e57600080fd5b506101976109a7565b6040516101a4919061277d565b60405180910390f35b3480156101b957600080fd5b506101d460048036038101906101cf9190612220565b6109d1565b005b3480156101e257600080fd5b506101eb610dc1565b6040516101f89190612843565b60405180910390f35b34801561020d57600080fd5b5061022860048036038101906102239190612151565b610de7565b60405161023793929190612798565b60405180910390f35b34801561024c57600080fd5b50610267600480360381019061026291906121a3565b6113eb565b005b34801561027557600080fd5b50610290600480360381019061028b91906120ab565b6114c9565b005b7f000000000000000000000000000000000000000000000000000000000000000073ffffffffffffffffffffffffffffffffffffffff163073ffffffffffffffffffffffffffffffffffffffff161415610321576040517f08c379a00000000000000000000000000000000000000000000000000000000081526004016103189061293c565b60405180910390fd5b7f000000000000000000000000000000000000000000000000000000000000000073ffffffffffffffffffffffffffffffffffffffff166103606115c1565b73ffffffffffffffffffffffffffffffffffffffff16146103b6576040517f08c379a00000000000000000000000000000000000000000000000000000000081526004016103ad9061299c565b60405180910390fd5b6103bf81611618565b61043e81600067ffffffffffffffff811115610404577f4e487b7100000000000000000000000000000000000000000000000000000000600052604160045260246000fd5b6040519080825280601f01601f1916602001820160405280156104365781602001600182028036833780820191505090505b506000611697565b50565b7f000000000000000000000000000000000000000000000000000000000000000073ffffffffffffffffffffffffffffffffffffffff163073ffffffffffffffffffffffffffffffffffffffff1614156104d0576040517f08c379a00000000000000000000000000000000000000000000000000000000081526004016104c79061293c565b60405180910390fd5b7f000000000000000000000000000000000000000000000000000000000000000073ffffffffffffffffffffffffffffffffffffffff1661050f6115c1565b73ffffffffffffffffffffffffffffffffffffffff1614610565576040517f08c379a000000000000000000000000000000000000000000000000000000000815260040161055c9061299c565b60405180910390fd5b61056e82611618565b61057a82826001611697565b5050565b60007f000000000000000000000000000000000000000000000000000000000000000073ffffffffffffffffffffffffffffffffffffffff163073ffffffffffffffffffffffffffffffffffffffff161461060e576040517f08c379a0000000000000000000000000000000000000000000000000000000008152600401610605906129bc565b60405180910390fd5b7f360894a13ba1a3210667c828492db98dca3e2076cc3735a920a3ca505d382bbc600102905090565b61063f611830565b73ffffffffffffffffffffffffffffffffffffffff1661065d6109a7565b73ffffffffffffffffffffffffffffffffffffffff16146106b3576040517f08c379a00000000000000000000000000000000000000000000000000000000081526004016106aa90612a5c565b60405180910390fd5b6106bd6000611838565b565b60008060ca6000848152602001908152602001600020846040516106e39190612766565b9081526020016040518091039020600401541415610736576040517f08c379a000000000000000000000000000000000000000000000000000000000815260040161072d9061291c565b60405180910390fd5b60008060ca60008581526020019081526020016000208560405161075a9190612766565b90815260200160405180910390206001018054806020026020016040519081016040528092919081815260200182805480156107eb57602002820191906000526020600020905b8160009054906101000a900473ffffffffffffffffffffffffffffffffffffffff1673ffffffffffffffffffffffffffffffffffffffff16815260200190600101908083116107a1575b50505050509050600060ca6000868152602001908152602001600020866040516108159190612766565b908152602001604051809103902060000160009054906101000a900473ffffffffffffffffffffffffffffffffffffffff16905060005b825181101561091b573373ffffffffffffffffffffffffffffffffffffffff168382815181106108a5577f4e487b7100000000000000000000000000000000000000000000000000000000600052603260045260246000fd5b602002602001015173ffffffffffffffffffffffffffffffffffffffff1614806108fa57503373ffffffffffffffffffffffffffffffffffffffff168273ffffffffffffffffffffffffffffffffffffffff16145b15610908576001935061091b565b808061091390612de8565b91505061084c565b508261095c576040517f08c379a00000000000000000000000000000000000000000000000000000000081526004016109539061297c565b60405180910390fd5b60ca60008681526020019081526020016000208660405161097d9190612766565b908152602001604051809103902060050160009054906101000a900460ff16935050505092915050565b6000609760009054906101000a900473ffffffffffffffffffffffffffffffffffffffff16905090565b60c960009054906101000a900473ffffffffffffffffffffffffffffffffffffffff1673ffffffffffffffffffffffffffffffffffffffff1663053d31dc84336040518363ffffffff167c0100000000000000000000000000000000000000000000000000000000028152600401610a4a92919061281a565b60206040518083038186803b158015610a6257600080fd5b505afa158015610a76573d6000803e3d6000fd5b505050506040513d601f19601f82011682018060405250810190610a9a9190612128565b610ad9576040517f08c379a0000000000000000000000000000000000000000000000000000000008152600401610ad09061295c565b60405180910390fd5b60ca600084815260200190815260200160002084604051610afa9190612766565b908152602001604051809103902060050160009054906101000a900460ff16610d7c5760cb600084815260200190815260200160002084908060018154018082558091505060019003906000526020600020016000909190919091509080519060200190610b69929190611daf565b503360ca600085815260200190815260200160002085604051610b8c9190612766565b908152602001604051809103902060000160006101000a81548173ffffffffffffffffffffffffffffffffffffffff021916908373ffffffffffffffffffffffffffffffffffffffff1602179055508360ca600085815260200190815260200160002085604051610bfd9190612766565b90815260200160405180910390206002019080519060200190610c21929190611daf565b508060ca600085815260200190815260200160002085604051610c449190612766565b9081526020016040518091039020600301819055504260ca600085815260200190815260200160002085604051610c7b9190612766565b908152602001604051809103902060040181905550600160ca600085815260200190815260200160002085604051610cb39190612766565b908152602001604051809103902060050160006101000a81548160ff021916908315150217905550600160cb600085815260200190815260200160002080549050610cfe9190612c68565b60ca600085815260200190815260200160002085604051610d1f9190612766565b9081526020016040518091039020600601819055508160ca600085815260200190815260200160002085604051610d569190612766565b90815260200160405180910390206001019080519060200190610d7a929190611e35565b505b7fbed2ac300ce27031ea586b9d951a4f56b4ae6195aea2b4590e537a5e3ee684118482858533604051610db395949392919061289b565b60405180910390a150505050565b60c960009054906101000a900473ffffffffffffffffffffffffffffffffffffffff1681565b6060806060600060cb6000868152602001908152602001600020805480602002602001604051908101604052809291908181526020016000905b82821015610ecd578382906000526020600020018054610e4090612d85565b80601f0160208091040260200160405190810160405280929190818152602001828054610e6c90612d85565b8015610eb95780601f10610e8e57610100808354040283529160200191610eb9565b820191906000526020600020905b815481529060010190602001808311610e9c57829003601f168201915b505050505081526020019060010190610e21565b5050505090506000815167ffffffffffffffff811115610f16577f4e487b7100000000000000000000000000000000000000000000000000000000600052604160045260246000fd5b604051908082528060200260200182016040528015610f445781602001602082028036833780820191505090505b5090506000825167ffffffffffffffff811115610f8a577f4e487b7100000000000000000000000000000000000000000000000000000000600052604160045260246000fd5b604051908082528060200260200182016040528015610fbd57816020015b6060815260200190600190039081610fa85790505b5090506000835167ffffffffffffffff811115611003577f4e487b7100000000000000000000000000000000000000000000000000000000600052604160045260246000fd5b6040519080825280602002602001820160405280156110315781602001602082028036833780820191505090505b50905060005b84518110156113d65760ca60008a815260200190815260200160002085828151811061108c577f4e487b7100000000000000000000000000000000000000000000000000000000600052603260045260246000fd5b60200260200101516040516110a19190612766565b908152602001604051809103902060050160009054906101000a900460ff16156113c35760ca60008a8152602001908152602001600020858281518110611111577f4e487b7100000000000000000000000000000000000000000000000000000000600052603260045260246000fd5b60200260200101516040516111269190612766565b908152602001604051809103902060000160009054906101000a900473ffffffffffffffffffffffffffffffffffffffff16848281518110611191577f4e487b7100000000000000000000000000000000000000000000000000000000600052603260045260246000fd5b602002602001019073ffffffffffffffffffffffffffffffffffffffff16908173ffffffffffffffffffffffffffffffffffffffff168152505060ca60008a8152602001908152602001600020858281518110611217577f4e487b7100000000000000000000000000000000000000000000000000000000600052603260045260246000fd5b602002602001015160405161122c9190612766565b9081526020016040518091039020600201805461124890612d85565b80601f016020809104026020016040519081016040528092919081815260200182805461127490612d85565b80156112c15780601f10611296576101008083540402835291602001916112c1565b820191906000526020600020905b8154815290600101906020018083116112a457829003601f168201915b50505050508382815181106112ff577f4e487b7100000000000000000000000000000000000000000000000000000000600052603260045260246000fd5b602002602001018190525060ca60008a8152602001908152602001600020858281518110611356577f4e487b7100000000000000000000000000000000000000000000000000000000600052603260045260246000fd5b602002602001015160405161136b9190612766565b9081526020016040518091039020600301548282815181106113b6577f4e487b7100000000000000000000000000000000000000000000000000000000600052603260045260246000fd5b6020026020010181815250505b80806113ce90612de8565b915050611037565b50828282965096509650505050509193909250565b60006113f760016118fe565b9050801561141b576001600060016101000a81548160ff0219169083151502179055505b8160c960006101000a81548173ffffffffffffffffffffffffffffffffffffffff021916908373ffffffffffffffffffffffffffffffffffffffff1602179055506114646119ee565b61146c611a47565b80156114c55760008060016101000a81548160ff0219169083151502179055507f7f26b83ff96e1f2b6a682f133852f6798a09c465da95921460cefb384740249860016040516114bc919061285e565b60405180910390a15b5050565b6114d1611830565b73ffffffffffffffffffffffffffffffffffffffff166114ef6109a7565b73ffffffffffffffffffffffffffffffffffffffff1614611545576040517f08c379a000000000000000000000000000000000000000000000000000000000815260040161153c90612a5c565b60405180910390fd5b600073ffffffffffffffffffffffffffffffffffffffff168173ffffffffffffffffffffffffffffffffffffffff1614156115b5576040517f08c379a00000000000000000000000000000000000000000000000000000000081526004016115ac906128fc565b60405180910390fd5b6115be81611838565b50565b60006115ef7f360894a13ba1a3210667c828492db98dca3e2076cc3735a920a3ca505d382bbc600102611a98565b60000160009054906101000a900473ffffffffffffffffffffffffffffffffffffffff16905090565b611620611830565b73ffffffffffffffffffffffffffffffffffffffff1661163e6109a7565b73ffffffffffffffffffffffffffffffffffffffff1614611694576040517f08c379a000000000000000000000000000000000000000000000000000000000815260040161168b90612a5c565b60405180910390fd5b50565b6116c37f4910fdfa16fed3260ed0e7147f7cc6da11a60208b5b9406d12a635614ffd9143600102611aa2565b60000160009054906101000a900460ff16156116e7576116e283611aac565b61182b565b8273ffffffffffffffffffffffffffffffffffffffff166352d1902d6040518163ffffffff167c010000000000000000000000000000000000000000000000000000000002815260040160206040518083038186803b15801561174957600080fd5b505afa92505050801561177a57506040513d601f19601f82011682018060405250810190611777919061217a565b60015b6117b9576040517f08c379a00000000000000000000000000000000000000000000000000000000081526004016117b090612a1c565b60405180910390fd5b7f360894a13ba1a3210667c828492db98dca3e2076cc3735a920a3ca505d382bbc600102811461181e576040517f08c379a0000000000000000000000000000000000000000000000000000000008152600401611815906129dc565b60405180910390fd5b5061182a838383611b65565b5b505050565b600033905090565b6000609760009054906101000a900473ffffffffffffffffffffffffffffffffffffffff16905081609760006101000a81548173ffffffffffffffffffffffffffffffffffffffff021916908373ffffffffffffffffffffffffffffffffffffffff1602179055508173ffffffffffffffffffffffffffffffffffffffff168173ffffffffffffffffffffffffffffffffffffffff167f8be0079c531659141344cd1fd0a4f28419497f9722a3daafe3b4186f6b6457e060405160405180910390a35050565b60008060019054906101000a900460ff16156119755760018260ff1614801561192d575061192b30611b91565b155b61196c576040517f08c379a0000000000000000000000000000000000000000000000000000000008152600401611963906129fc565b60405180910390fd5b600090506119e9565b8160ff1660008054906101000a900460ff1660ff16106119ca576040517f08c379a00000000000000000000000000000000000000000000000000000000081526004016119c1906129fc565b60405180910390fd5b816000806101000a81548160ff021916908360ff160217905550600190505b919050565b600060019054906101000a900460ff16611a3d576040517f08c379a0000000000000000000000000000000000000000000000000000000008152600401611a3490612a9c565b60405180910390fd5b611a45611bb4565b565b600060019054906101000a900460ff16611a96576040517f08c379a0000000000000000000000000000000000000000000000000000000008152600401611a8d90612a9c565b60405180910390fd5b565b6000819050919050565b6000819050919050565b611ab581611b91565b611af4576040517f08c379a0000000000000000000000000000000000000000000000000000000008152600401611aeb90612a3c565b60405180910390fd5b80611b217f360894a13ba1a3210667c828492db98dca3e2076cc3735a920a3ca505d382bbc600102611a98565b60000160006101000a81548173ffffffffffffffffffffffffffffffffffffffff021916908373ffffffffffffffffffffffffffffffffffffffff16021790555050565b611b6e83611c15565b600082511180611b7b5750805b15611b8c57611b8a8383611c64565b505b505050565b6000808273ffffffffffffffffffffffffffffffffffffffff163b119050919050565b600060019054906101000a900460ff16611c03576040517f08c379a0000000000000000000000000000000000000000000000000000000008152600401611bfa90612a9c565b60405180910390fd5b611c13611c0e611830565b611838565b565b611c1e81611aac565b8073ffffffffffffffffffffffffffffffffffffffff167fbc7cd75a20ee27fd9adebab32041f755214dbc6bffa90cc0225b39da2e5c2d3b60405160405180910390a250565b6060611c6f83611b91565b611cae576040517f08c379a0000000000000000000000000000000000000000000000000000000008152600401611ca590612a7c565b60405180910390fd5b6000808473ffffffffffffffffffffffffffffffffffffffff1684604051611cd6919061274f565b600060405180830381855af49150503d8060008114611d11576040519150601f19603f3d011682016040523d82523d6000602084013e611d16565b606091505b5091509150611d3e828260405180606001604052806027815260200161333260279139611d48565b9250505092915050565b60608315611d5857829050611da8565b600083511115611d6b5782518084602001fd5b816040517f08c379a0000000000000000000000000000000000000000000000000000000008152600401611d9f9190612879565b60405180910390fd5b9392505050565b828054611dbb90612d85565b90600052602060002090601f016020900481019282611ddd5760008555611e24565b82601f10611df657805160ff1916838001178555611e24565b82800160010185558215611e24579182015b82811115611e23578251825591602001919060010190611e08565b5b509050611e319190611ebf565b5090565b828054828255906000526020600020908101928215611eae579160200282015b82811115611ead5782518260006101000a81548173ffffffffffffffffffffffffffffffffffffffff021916908373ffffffffffffffffffffffffffffffffffffffff16021790555091602001919060010190611e55565b5b509050611ebb9190611ebf565b5090565b5b80821115611ed8576000816000905550600101611ec0565b5090565b6000611eef611eea84612ae1565b612abc565b90508083825260208201905082856020860282011115611f0e57600080fd5b60005b85811015611f3e5781611f248882611fc4565b845260208401935060208301925050600181019050611f11565b5050509392505050565b6000611f5b611f5684612b0d565b612abc565b905082815260208101848484011115611f7357600080fd5b611f7e848285612d43565b509392505050565b6000611f99611f9484612b3e565b612abc565b905082815260208101848484011115611fb157600080fd5b611fbc848285612d43565b509392505050565b600081359050611fd3816132d5565b92915050565b600082601f830112611fea57600080fd5b8135611ffa848260208601611edc565b91505092915050565b600081519050612012816132ec565b92915050565b60008135905061202781613303565b92915050565b60008151905061203c81613303565b92915050565b600082601f83011261205357600080fd5b8135612063848260208601611f48565b91505092915050565b60008135905061207b8161331a565b92915050565b600082601f83011261209257600080fd5b81356120a2848260208601611f86565b91505092915050565b6000602082840312156120bd57600080fd5b60006120cb84828501611fc4565b91505092915050565b600080604083850312156120e757600080fd5b60006120f585828601611fc4565b925050602083013567ffffffffffffffff81111561211257600080fd5b61211e85828601612042565b9150509250929050565b60006020828403121561213a57600080fd5b600061214884828501612003565b91505092915050565b60006020828403121561216357600080fd5b600061217184828501612018565b91505092915050565b60006020828403121561218c57600080fd5b600061219a8482850161202d565b91505092915050565b6000602082840312156121b557600080fd5b60006121c38482850161206c565b91505092915050565b600080604083850312156121df57600080fd5b600083013567ffffffffffffffff8111156121f957600080fd5b61220585828601612081565b925050602061221685828601612018565b9150509250929050565b6000806000806080858703121561223657600080fd5b600085013567ffffffffffffffff81111561225057600080fd5b61225c87828801612081565b945050602061226d87828801612018565b935050604085013567ffffffffffffffff81111561228a57600080fd5b61229687828801611fd9565b92505060606122a787828801612018565b91505092959194509250565b60006122bf83836122f7565b60208301905092915050565b60006122d78383612455565b60208301905092915050565b60006122ef83836124c2565b905092915050565b61230081612c9c565b82525050565b61230f81612c9c565b82525050565b600061232082612b9f565b61232a8185612bfd565b935061233583612b6f565b8060005b8381101561236657815161234d88826122b3565b975061235883612bd6565b925050600181019050612339565b5085935050505092915050565b600061237e82612baa565b6123888185612c0e565b935061239383612b7f565b8060005b838110156123c45781516123ab88826122cb565b97506123b683612be3565b925050600181019050612397565b5085935050505092915050565b60006123dc82612bb5565b6123e68185612c1f565b9350836020820285016123f885612b8f565b8060005b85811015612434578484038952815161241585826122e3565b945061242083612bf0565b925060208a019950506001810190506123fc565b50829750879550505050505092915050565b61244f81612cae565b82525050565b61245e81612cba565b82525050565b61246d81612cba565b82525050565b600061247e82612bc0565b6124888185612c30565b9350612498818560208601612d52565b80840191505092915050565b6124ad81612d0d565b82525050565b6124bc81612d31565b82525050565b60006124cd82612bcb565b6124d78185612c3b565b93506124e7818560208601612d52565b6124f081612ebe565b840191505092915050565b600061250682612bcb565b6125108185612c4c565b9350612520818560208601612d52565b61252981612ebe565b840191505092915050565b600061253f82612bcb565b6125498185612c5d565b9350612559818560208601612d52565b80840191505092915050565b6000612572602683612c4c565b915061257d82612ecf565b604082019050919050565b6000612595602583612c4c565b91506125a082612f1e565b604082019050919050565b60006125b8602c83612c4c565b91506125c382612f6d565b604082019050919050565b60006125db601683612c4c565b91506125e682612fbc565b602082019050919050565b60006125fe602c83612c4c565b915061260982612fe5565b604082019050919050565b6000612621602c83612c4c565b915061262c82613034565b604082019050919050565b6000612644603883612c4c565b915061264f82613083565b604082019050919050565b6000612667602983612c4c565b9150612672826130d2565b604082019050919050565b600061268a602e83612c4c565b915061269582613121565b604082019050919050565b60006126ad602e83612c4c565b91506126b882613170565b604082019050919050565b60006126d0602d83612c4c565b91506126db826131bf565b604082019050919050565b60006126f3602083612c4c565b91506126fe8261320e565b602082019050919050565b6000612716602683612c4c565b915061272182613237565b604082019050919050565b6000612739602b83612c4c565b915061274482613286565b604082019050919050565b600061275b8284612473565b915081905092915050565b60006127728284612534565b915081905092915050565b60006020820190506127926000830184612306565b92915050565b600060608201905081810360008301526127b28186612315565b905081810360208301526127c681856123d1565b905081810360408301526127da8184612373565b9050949350505050565b60006020820190506127f96000830184612446565b92915050565b60006020820190506128146000830184612464565b92915050565b600060408201905061282f6000830185612464565b61283c6020830184612306565b9392505050565b600060208201905061285860008301846124a4565b92915050565b600060208201905061287360008301846124b3565b92915050565b6000602082019050818103600083015261289381846124fb565b905092915050565b600060a08201905081810360008301526128b581886124fb565b90506128c46020830187612464565b6128d16040830186612464565b81810360608301526128e38185612315565b90506128f26080830184612306565b9695505050505050565b6000602082019050818103600083015261291581612565565b9050919050565b6000602082019050818103600083015261293581612588565b9050919050565b60006020820190508181036000830152612955816125ab565b9050919050565b60006020820190508181036000830152612975816125ce565b9050919050565b60006020820190508181036000830152612995816125f1565b9050919050565b600060208201905081810360008301526129b581612614565b9050919050565b600060208201905081810360008301526129d581612637565b9050919050565b600060208201905081810360008301526129f58161265a565b9050919050565b60006020820190508181036000830152612a158161267d565b9050919050565b60006020820190508181036000830152612a35816126a0565b9050919050565b60006020820190508181036000830152612a55816126c3565b9050919050565b60006020820190508181036000830152612a75816126e6565b9050919050565b60006020820190508181036000830152612a9581612709565b9050919050565b60006020820190508181036000830152612ab58161272c565b9050919050565b6000612ac6612ad7565b9050612ad28282612db7565b919050565b6000604051905090565b600067ffffffffffffffff821115612afc57612afb612e8f565b5b602082029050602081019050919050565b600067ffffffffffffffff821115612b2857612b27612e8f565b5b612b3182612ebe565b9050602081019050919050565b600067ffffffffffffffff821115612b5957612b58612e8f565b5b612b6282612ebe565b9050602081019050919050565b6000819050602082019050919050565b6000819050602082019050919050565b6000819050602082019050919050565b600081519050919050565b600081519050919050565b600081519050919050565b600081519050919050565b600081519050919050565b6000602082019050919050565b6000602082019050919050565b6000602082019050919050565b600082825260208201905092915050565b600082825260208201905092915050565b600082825260208201905092915050565b600081905092915050565b600082825260208201905092915050565b600082825260208201905092915050565b600081905092915050565b6000612c7382612cf6565b9150612c7e83612cf6565b925082821015612c9157612c90612e31565b5b828203905092915050565b6000612ca782612cd6565b9050919050565b60008115159050919050565b6000819050919050565b6000612ccf82612c9c565b9050919050565b600073ffffffffffffffffffffffffffffffffffffffff82169050919050565b6000819050919050565b600060ff82169050919050565b6000612d1882612d1f565b9050919050565b6000612d2a82612cd6565b9050919050565b6000612d3c82612d00565b9050919050565b82818337600083830152505050565b60005b83811015612d70578082015181840152602081019050612d55565b83811115612d7f576000848401525b50505050565b60006002820490506001821680612d9d57607f821691505b60208210811415612db157612db0612e60565b5b50919050565b612dc082612ebe565b810181811067ffffffffffffffff82111715612ddf57612dde612e8f565b5b80604052505050565b6000612df382612cf6565b91507fffffffffffffffffffffffffffffffffffffffffffffffffffffffffffffffff821415612e2657612e25612e31565b5b600182019050919050565b7f4e487b7100000000000000000000000000000000000000000000000000000000600052601160045260246000fd5b7f4e487b7100000000000000000000000000000000000000000000000000000000600052602260045260246000fd5b7f4e487b7100000000000000000000000000000000000000000000000000000000600052604160045260246000fd5b6000601f19601f8301169050919050565b7f4f776e61626c653a206e6577206f776e657220697320746865207a65726f206160008201527f6464726573730000000000000000000000000000000000000000000000000000602082015250565b7f5265736f75726365206973206e6f74207265676973746572656420696e20636f60008201527f6e73656e74000000000000000000000000000000000000000000000000000000602082015250565b7f46756e6374696f6e206d7573742062652063616c6c6564207468726f7567682060008201527f64656c656761746563616c6c0000000000000000000000000000000000000000602082015250565b7f436f6e73656e74206e6f74207265676973746572656400000000000000000000600082015250565b7f596f7520646f6e27742068617665207065726d697373696f6e206f766572207460008201527f686973207265736f757263650000000000000000000000000000000000000000602082015250565b7f46756e6374696f6e206d7573742062652063616c6c6564207468726f7567682060008201527f6163746976652070726f78790000000000000000000000000000000000000000602082015250565b7f555550535570677261646561626c653a206d757374206e6f742062652063616c60008201527f6c6564207468726f7567682064656c656761746563616c6c0000000000000000602082015250565b7f45524331393637557067726164653a20756e737570706f727465642070726f7860008201527f6961626c65555549440000000000000000000000000000000000000000000000602082015250565b7f496e697469616c697a61626c653a20636f6e747261637420697320616c72656160008201527f647920696e697469616c697a6564000000000000000000000000000000000000602082015250565b7f45524331393637557067726164653a206e657720696d706c656d656e7461746960008201527f6f6e206973206e6f742055555053000000000000000000000000000000000000602082015250565b7f455243313936373a206e657720696d706c656d656e746174696f6e206973206e60008201527f6f74206120636f6e747261637400000000000000000000000000000000000000602082015250565b7f4f776e61626c653a2063616c6c6572206973206e6f7420746865206f776e6572600082015250565b7f416464726573733a2064656c65676174652063616c6c20746f206e6f6e2d636f60008201527f6e74726163740000000000000000000000000000000000000000000000000000602082015250565b7f496e697469616c697a61626c653a20636f6e7472616374206973206e6f74206960008201527f6e697469616c697a696e67000000000000000000000000000000000000000000602082015250565b6132de81612c9c565b81146132e957600080fd5b50565b6132f581612cae565b811461330057600080fd5b50565b61330c81612cba565b811461331757600080fd5b50565b61332381612cc4565b811461332e57600080fd5b5056fe416464726573733a206c6f772d6c6576656c2064656c65676174652063616c6c206661696c6564a26469706673582212200d4734c42a09ddcfde31475c171b706f45513aa93e7228b23023fe11c321cf4364736f6c63430008020033",
  "immutableReferences": {
    "1098": [
      {
        "length": 32,
        "start": 660
      },
      {
        "length": 32,
        "start": 803
      },
      {
        "length": 32,
        "start": 1091
      },
      {
        "length": 32,
        "start": 1234
      },
      {
        "length": 32,
        "start": 1410
      }
    ]
  },
  "source": "// SPDX-License-Identifier: GPL-3.0\npragma solidity ^0.8.0;\n\nimport \"@openzeppelin/contracts-upgradeable/proxy/utils/Initializable.sol\";\nimport \"@openzeppelin/contracts-upgradeable/proxy/utils/UUPSUpgradeable.sol\";\nimport \"@openzeppelin/contracts-upgradeable/access/OwnableUpgradeable.sol\";\nimport \"@openzeppelin/contracts-upgradeable/access/AccessControlUpgradeable.sol\";\nimport \"./Consent.sol\";\n\ncontract Access is Initializable, UUPSUpgradeable, OwnableUpgradeable {\n\n    struct ResourceAccess {\n        address user;\n        address[] researchers;\n        string resourceShared;\n        bytes32 resourceName;\n        uint256 sharedDate;\n        bool shared;\n        uint index;\n    }\n\n    event GiveAccess (\n        string resource,\n        bytes32 resourceName,\n        bytes32 consentId,\n        address[] researchers,\n        address resourceOwner\n    );\n\n    Consent public consent;\n    mapping (bytes32 => mapping(string => ResourceAccess)) resourcesDetailsByConsent;\n    mapping (bytes32 => string[]) resourcesByConsent;\n\n    function initialize(Consent _consent) initializer public {\n        consent = _consent;\n        __Ownable_init();\n        __UUPSUpgradeable_init();\n    }\n\n    function _authorizeUpgrade(address) internal override onlyOwner {}\n\n    function giveAccess (string memory resource, bytes32 consentId, address[] memory researchers, bytes32 resourceName) \n        external {\n        require(consent.getConsent(consentId, msg.sender), \"Consent not registered\");\n\n        if (!resourcesDetailsByConsent[consentId][resource].shared ) {\n            resourcesByConsent[consentId].push(resource);\n            resourcesDetailsByConsent[consentId][resource].user = msg.sender;\n            resourcesDetailsByConsent[consentId][resource].resourceShared = resource;\n            resourcesDetailsByConsent[consentId][resource].resourceName = resourceName;\n            resourcesDetailsByConsent[consentId][resource].sharedDate = block.timestamp;\n            resourcesDetailsByConsent[consentId][resource].shared = true;\n            resourcesDetailsByConsent[consentId][resource].index = resourcesByConsent[consentId].length - 1;\n            resourcesDetailsByConsent[consentId][resource].researchers = researchers;\n        }\n\n        emit GiveAccess(resource, resourceName, consentId, researchers, msg.sender);\n    }\n\n    function checkAccess (string memory resource, bytes32 consentId) external view returns (bool) {\n        require(resourcesDetailsByConsent[consentId][resource].sharedDate != 0, \n            \"Resource is not registered in consent\");\n        \n        bool isInList = false;\n        address[] memory researchers = resourcesDetailsByConsent[consentId][resource].researchers;\n        address owner = resourcesDetailsByConsent[consentId][resource].user;\n\n        for (uint i = 0; i < researchers.length; i++) {\n            if (researchers[i] == msg.sender || owner == msg.sender) {\n                isInList = true;\n                break;\n            }\n        }\n\n        require(isInList, \"You don't have permission over this resource\");\n\n        return resourcesDetailsByConsent[consentId][resource].shared;\n    }\n\n    function getResourceByConsent (bytes32 consentId) external view \n        returns (address[] memory, string[] memory, bytes32[] memory)\n    {\n        string[] memory _resourcesByConsent = resourcesByConsent[consentId];\n\n        address[] memory owners_ = new address[](_resourcesByConsent.length);\n        string[] memory resources_ = new string[](_resourcesByConsent.length);\n        bytes32[] memory resourcesName_ = new bytes32[](_resourcesByConsent.length);   \n\n        for (uint i = 0; i < _resourcesByConsent.length; i++) {\n            if (resourcesDetailsByConsent[consentId][_resourcesByConsent[i]].shared) \n            {\n                owners_[i] = resourcesDetailsByConsent[consentId][_resourcesByConsent[i]].user;\n                resources_[i] = resourcesDetailsByConsent[consentId][_resourcesByConsent[i]].resourceShared;\n                resourcesName_[i] = resourcesDetailsByConsent[consentId][_resourcesByConsent[i]].resourceName;\n            }\n        }\n\n        return (owners_, resources_, resourcesName_);\n    }\n}\n",
  "sourcePath": "C:\\Users\\Hector Zapata\\OneDrive\\Escritorio\\SmartContracts\\BHSmartContracts-feature-refactorHealthDAO\\src\\HealthDAO\\contracts\\Access.sol",
  "compiler": {
    "name": "solc",
    "version": "0.8.2+commit.661d1103.Linux.g++"
  },
  "schemaVersion": "3.4.7",
  "updatedAt": "2022-08-26T21:56:05.268Z",
  "networkType": "ethereum",
  "devdoc": {
    "kind": "dev",
    "methods": {
      "owner()": {
        "details": "Returns the address of the current owner."
      },
      "proxiableUUID()": {
        "details": "Implementation of the ERC1822 {proxiableUUID} function. This returns the storage slot used by the implementation. It is used to validate that the this implementation remains valid after an upgrade. IMPORTANT: A proxy pointing at a proxiable contract should not be considered proxiable itself, because this risks bricking a proxy that upgrades to it, by delegating to itself until out of gas. Thus it is critical that this function revert if invoked through a proxy. This is guaranteed by the `notDelegated` modifier."
      },
      "renounceOwnership()": {
        "details": "Leaves the contract without owner. It will not be possible to call `onlyOwner` functions anymore. Can only be called by the current owner. NOTE: Renouncing ownership will leave the contract without an owner, thereby removing any functionality that is only available to the owner."
      },
      "transferOwnership(address)": {
        "details": "Transfers ownership of the contract to a new account (`newOwner`). Can only be called by the current owner."
      },
      "upgradeTo(address)": {
        "details": "Upgrade the implementation of the proxy to `newImplementation`. Calls {_authorizeUpgrade}. Emits an {Upgraded} event."
      },
      "upgradeToAndCall(address,bytes)": {
        "details": "Upgrade the implementation of the proxy to `newImplementation`, and subsequently execute the function call encoded in `data`. Calls {_authorizeUpgrade}. Emits an {Upgraded} event."
      }
    },
    "version": 1
  },
  "userdoc": {
    "kind": "user",
    "methods": {},
    "version": 1
  }
}