{
  "contractName": "ConsentResource",
  "abi": [
    {
      "anonymous": false,
      "inputs": [
        {
          "indexed": false,
          "internalType": "address",
          "name": "previousAdmin",
          "type": "address"
        },
        {
          "indexed": false,
          "internalType": "address",
          "name": "newAdmin",
          "type": "address"
        }
      ],
      "name": "AdminChanged",
      "type": "event"
    },
    {
      "anonymous": false,
      "inputs": [
        {
          "indexed": true,
          "internalType": "address",
          "name": "beacon",
          "type": "address"
        }
      ],
      "name": "BeaconUpgraded",
      "type": "event"
    },
    {
      "anonymous": false,
      "inputs": [
        {
          "indexed": false,
          "internalType": "uint8",
          "name": "version",
          "type": "uint8"
        }
      ],
      "name": "Initialized",
      "type": "event"
    },
    {
      "anonymous": false,
      "inputs": [
        {
          "indexed": true,
          "internalType": "address",
          "name": "previousOwner",
          "type": "address"
        },
        {
          "indexed": true,
          "internalType": "address",
          "name": "newOwner",
          "type": "address"
        }
      ],
      "name": "OwnershipTransferred",
      "type": "event"
    },
    {
      "anonymous": false,
      "inputs": [
        {
          "indexed": true,
          "internalType": "address",
          "name": "implementation",
          "type": "address"
        }
      ],
      "name": "Upgraded",
      "type": "event"
    },
    {
      "inputs": [],
      "name": "owner",
      "outputs": [
        {
          "internalType": "address",
          "name": "",
          "type": "address"
        }
      ],
      "stateMutability": "view",
      "type": "function",
      "constant": true
    },
    {
      "inputs": [],
      "name": "proxiableUUID",
      "outputs": [
        {
          "internalType": "bytes32",
          "name": "",
          "type": "bytes32"
        }
      ],
      "stateMutability": "view",
      "type": "function",
      "constant": true
    },
    {
      "inputs": [],
      "name": "renounceOwnership",
      "outputs": [],
      "stateMutability": "nonpayable",
      "type": "function"
    },
    {
      "inputs": [
        {
          "internalType": "address",
          "name": "newOwner",
          "type": "address"
        }
      ],
      "name": "transferOwnership",
      "outputs": [],
      "stateMutability": "nonpayable",
      "type": "function"
    },
    {
      "inputs": [
        {
          "internalType": "address",
          "name": "newImplementation",
          "type": "address"
        }
      ],
      "name": "upgradeTo",
      "outputs": [],
      "stateMutability": "nonpayable",
      "type": "function"
    },
    {
      "inputs": [
        {
          "internalType": "address",
          "name": "newImplementation",
          "type": "address"
        },
        {
          "internalType": "bytes",
          "name": "data",
          "type": "bytes"
        }
      ],
      "name": "upgradeToAndCall",
      "outputs": [],
      "stateMutability": "payable",
      "type": "function",
      "payable": true
    },
    {
      "inputs": [],
      "name": "initialize",
      "outputs": [],
      "stateMutability": "nonpayable",
      "type": "function"
    },
    {
      "inputs": [
        {
          "internalType": "bytes32",
          "name": "consentId",
          "type": "bytes32"
        }
      ],
      "name": "getConsentResources",
      "outputs": [
        {
          "internalType": "bytes32[]",
          "name": "",
          "type": "bytes32[]"
        },
        {
          "internalType": "bytes32[]",
          "name": "",
          "type": "bytes32[]"
        },
        {
          "internalType": "uint256[]",
          "name": "",
          "type": "uint256[]"
        },
        {
          "internalType": "bool[]",
          "name": "",
          "type": "bool[]"
        }
      ],
      "stateMutability": "view",
      "type": "function",
      "constant": true
    },
    {
      "inputs": [
        {
          "internalType": "bytes32",
          "name": "consentId",
          "type": "bytes32"
        },
        {
          "internalType": "bytes32",
          "name": "name",
          "type": "bytes32"
        },
        {
          "internalType": "bytes32",
          "name": "resourceURI",
          "type": "bytes32"
        },
        {
          "internalType": "bytes32",
          "name": "resourceType",
          "type": "bytes32"
        },
        {
          "internalType": "uint256",
          "name": "position",
          "type": "uint256"
        },
        {
          "internalType": "bool",
          "name": "show",
          "type": "bool"
        }
      ],
      "name": "addResource",
      "outputs": [],
      "stateMutability": "nonpayable",
      "type": "function"
    },
    {
      "inputs": [
        {
          "internalType": "bytes32",
          "name": "consentId",
          "type": "bytes32"
        },
        {
          "internalType": "bytes32",
          "name": "name",
          "type": "bytes32"
        },
        {
          "internalType": "bool",
          "name": "visibility",
          "type": "bool"
        }
      ],
      "name": "updateResourceVisibility",
      "outputs": [],
      "stateMutability": "nonpayable",
      "type": "function"
    }
  ],
  "bytecode": "0x60a06040523073ffffffffffffffffffffffffffffffffffffffff1660809073ffffffffffffffffffffffffffffffffffffffff166c010000000000000000000000000281525034801561005257600080fd5b506080516c0100000000000000000000000090046129fc61009a60003960008181610239015281816102c80152818161054b015281816105da015261068a01526129fc6000f3fe6080604052600436106100ae576000357c010000000000000000000000000000000000000000000000000000000090048063792927d511610076578063792927d5146101635780638129fc1c1461018c5780638da5cb5b146101a3578063a58815e8146101ce578063f2fde38b1461020e576100ae565b80633659cfe6146100b357806348843c5a146100dc5780634f1ef2861461010557806352d1902d14610121578063715018a61461014c575b600080fd5b3480156100bf57600080fd5b506100da60048036038101906100d59190611a24565b610237565b005b3480156100e857600080fd5b5061010360048036038101906100fe9190611af3565b6103e6565b005b61011f600480360381019061011a9190611a4d565b610549565b005b34801561012d57600080fd5b50610136610686565b604051610143919061206e565b60405180910390f35b34801561015857600080fd5b5061016161073f565b005b34801561016f57600080fd5b5061018a60048036038101906101859190611b42565b6107c7565b005b34801561019857600080fd5b506101a1610a16565b005b3480156101af57600080fd5b506101b8610ab2565b6040516101c59190611ff2565b60405180910390f35b3480156101da57600080fd5b506101f560048036038101906101f09190611aa1565b610adc565b604051610205949392919061200d565b60405180910390f35b34801561021a57600080fd5b5061023560048036038101906102309190611a24565b61106d565b005b7f000000000000000000000000000000000000000000000000000000000000000073ffffffffffffffffffffffffffffffffffffffff163073ffffffffffffffffffffffffffffffffffffffff1614156102c6576040517f08c379a00000000000000000000000000000000000000000000000000000000081526004016102bd906120e6565b60405180910390fd5b7f000000000000000000000000000000000000000000000000000000000000000073ffffffffffffffffffffffffffffffffffffffff16610305611165565b73ffffffffffffffffffffffffffffffffffffffff161461035b576040517f08c379a000000000000000000000000000000000000000000000000000000000815260040161035290612106565b60405180910390fd5b610364816111bc565b6103e381600067ffffffffffffffff8111156103a9577f4e487b7100000000000000000000000000000000000000000000000000000000600052604160045260246000fd5b6040519080825280601f01601f1916602001820160405280156103db5781602001600182028036833780820191505090505b50600061123b565b50565b600060c9600085815260200190815260200160002060008481526020019081526020016000206002015411610450576040517f08c379a000000000000000000000000000000000000000000000000000000000815260040161044790612226565b60405180910390fd5b3373ffffffffffffffffffffffffffffffffffffffff1660c96000858152602001908152602001600020600084815260200190815260200160002060040160019054906101000a900473ffffffffffffffffffffffffffffffffffffffff1673ffffffffffffffffffffffffffffffffffffffff1614610505576040517f08c379a00000000000000000000000000000000000000000000000000000000081526004016104fc90612126565b60405180910390fd5b8060c96000858152602001908152602001600020600084815260200190815260200160002060040160006101000a81548160ff021916908315150217905550505050565b7f000000000000000000000000000000000000000000000000000000000000000073ffffffffffffffffffffffffffffffffffffffff163073ffffffffffffffffffffffffffffffffffffffff1614156105d8576040517f08c379a00000000000000000000000000000000000000000000000000000000081526004016105cf906120e6565b60405180910390fd5b7f000000000000000000000000000000000000000000000000000000000000000073ffffffffffffffffffffffffffffffffffffffff16610617611165565b73ffffffffffffffffffffffffffffffffffffffff161461066d576040517f08c379a000000000000000000000000000000000000000000000000000000000815260040161066490612106565b60405180910390fd5b610676826111bc565b6106828282600161123b565b5050565b60007f000000000000000000000000000000000000000000000000000000000000000073ffffffffffffffffffffffffffffffffffffffff163073ffffffffffffffffffffffffffffffffffffffff1614610716576040517f08c379a000000000000000000000000000000000000000000000000000000000815260040161070d90612146565b60405180910390fd5b7f360894a13ba1a3210667c828492db98dca3e2076cc3735a920a3ca505d382bbc600102905090565b6107476113d4565b73ffffffffffffffffffffffffffffffffffffffff16610765610ab2565b73ffffffffffffffffffffffffffffffffffffffff16146107bb576040517f08c379a00000000000000000000000000000000000000000000000000000000081526004016107b290612206565b60405180910390fd5b6107c560006113dc565b565b600060c9600088815260200190815260200160002060008781526020019081526020016000206002015414610831576040517f08c379a000000000000000000000000000000000000000000000000000000000815260040161082890612186565b60405180910390fd5b60ca60008781526020019081526020016000208590806001815401808255809150506001900390600052602060002001600090919091909150558360c960008881526020019081526020016000206000878152602001908152602001600020600001819055508260c960008881526020019081526020016000206000878152602001908152602001600020600101819055504260c960008881526020019081526020016000206000878152602001908152602001600020600201819055508160c960008881526020019081526020016000206000878152602001908152602001600020600301819055508060c96000888152602001908152602001600020600087815260200190815260200160002060040160006101000a81548160ff0219169083151502179055503360c96000888152602001908152602001600020600087815260200190815260200160002060040160016101000a81548173ffffffffffffffffffffffffffffffffffffffff021916908373ffffffffffffffffffffffffffffffffffffffff160217905550600160ca6000888152602001908152602001600020805490506109e391906123b9565b60c96000888152602001908152602001600020600087815260200190815260200160002060050181905550505050505050565b6000610a2260016114a2565b90508015610a46576001600060016101000a81548160ff0219169083151502179055505b610a4e611592565b610a566115eb565b8015610aaf5760008060016101000a81548160ff0219169083151502179055507f7f26b83ff96e1f2b6a682f133852f6798a09c465da95921460cefb38474024986001604051610aa69190612089565b60405180910390a15b50565b6000609760009054906101000a900473ffffffffffffffffffffffffffffffffffffffff16905090565b606080606080600060ca60008781526020019081526020016000208054905067ffffffffffffffff811115610b3a577f4e487b7100000000000000000000000000000000000000000000000000000000600052604160045260246000fd5b604051908082528060200260200182016040528015610b685781602001602082028036833780820191505090505b509050600060ca60008881526020019081526020016000208054905067ffffffffffffffff811115610bc3577f4e487b7100000000000000000000000000000000000000000000000000000000600052604160045260246000fd5b604051908082528060200260200182016040528015610bf15781602001602082028036833780820191505090505b509050600060ca60008981526020019081526020016000208054905067ffffffffffffffff811115610c4c577f4e487b7100000000000000000000000000000000000000000000000000000000600052604160045260246000fd5b604051908082528060200260200182016040528015610c7a5781602001602082028036833780820191505090505b509050600060ca60008a81526020019081526020016000208054905067ffffffffffffffff811115610cd5577f4e487b7100000000000000000000000000000000000000000000000000000000600052604160045260246000fd5b604051908082528060200260200182016040528015610d035781602001602082028036833780820191505090505b50905060005b60ca60008b8152602001908152602001600020805490508110156110555760c960008b8152602001908152602001600020600060ca60008d81526020019081526020016000208381548110610d87577f4e487b7100000000000000000000000000000000000000000000000000000000600052603260045260246000fd5b9060005260206000200154815260200190815260200160002060000154858281518110610ddd577f4e487b7100000000000000000000000000000000000000000000000000000000600052603260045260246000fd5b60200260200101818152505060c960008b8152602001908152602001600020600060ca60008d81526020019081526020016000208381548110610e49577f4e487b7100000000000000000000000000000000000000000000000000000000600052603260045260246000fd5b9060005260206000200154815260200190815260200160002060010154848281518110610e9f577f4e487b7100000000000000000000000000000000000000000000000000000000600052603260045260246000fd5b60200260200101818152505060c960008b8152602001908152602001600020600060ca60008d81526020019081526020016000208381548110610f0b577f4e487b7100000000000000000000000000000000000000000000000000000000600052603260045260246000fd5b9060005260206000200154815260200190815260200160002060030154838281518110610f61577f4e487b7100000000000000000000000000000000000000000000000000000000600052603260045260246000fd5b60200260200101818152505060c960008b8152602001908152602001600020600060ca60008d81526020019081526020016000208381548110610fcd577f4e487b7100000000000000000000000000000000000000000000000000000000600052603260045260246000fd5b9060005260206000200154815260200190815260200160002060040160009054906101000a900460ff16828281518110611030577f4e487b7100000000000000000000000000000000000000000000000000000000600052603260045260246000fd5b602002602001019015159081151581525050808061104d906124d1565b915050610d09565b50838383839750975097509750505050509193509193565b6110756113d4565b73ffffffffffffffffffffffffffffffffffffffff16611093610ab2565b73ffffffffffffffffffffffffffffffffffffffff16146110e9576040517f08c379a00000000000000000000000000000000000000000000000000000000081526004016110e090612206565b60405180910390fd5b600073ffffffffffffffffffffffffffffffffffffffff168173ffffffffffffffffffffffffffffffffffffffff161415611159576040517f08c379a0000000000000000000000000000000000000000000000000000000008152600401611150906120c6565b60405180910390fd5b611162816113dc565b50565b60006111937f360894a13ba1a3210667c828492db98dca3e2076cc3735a920a3ca505d382bbc60010261163c565b60000160009054906101000a900473ffffffffffffffffffffffffffffffffffffffff16905090565b6111c46113d4565b73ffffffffffffffffffffffffffffffffffffffff166111e2610ab2565b73ffffffffffffffffffffffffffffffffffffffff1614611238576040517f08c379a000000000000000000000000000000000000000000000000000000000815260040161122f90612206565b60405180910390fd5b50565b6112677f4910fdfa16fed3260ed0e7147f7cc6da11a60208b5b9406d12a635614ffd9143600102611646565b60000160009054906101000a900460ff161561128b5761128683611650565b6113cf565b8273ffffffffffffffffffffffffffffffffffffffff166352d1902d6040518163ffffffff167c010000000000000000000000000000000000000000000000000000000002815260040160206040518083038186803b1580156112ed57600080fd5b505afa92505050801561131e57506040513d601f19601f8201168201806040525081019061131b9190611aca565b60015b61135d576040517f08c379a0000000000000000000000000000000000000000000000000000000008152600401611354906121c6565b60405180910390fd5b7f360894a13ba1a3210667c828492db98dca3e2076cc3735a920a3ca505d382bbc60010281146113c2576040517f08c379a00000000000000000000000000000000000000000000000000000000081526004016113b990612166565b60405180910390fd5b506113ce838383611709565b5b505050565b600033905090565b6000609760009054906101000a900473ffffffffffffffffffffffffffffffffffffffff16905081609760006101000a81548173ffffffffffffffffffffffffffffffffffffffff021916908373ffffffffffffffffffffffffffffffffffffffff1602179055508173ffffffffffffffffffffffffffffffffffffffff168173ffffffffffffffffffffffffffffffffffffffff167f8be0079c531659141344cd1fd0a4f28419497f9722a3daafe3b4186f6b6457e060405160405180910390a35050565b60008060019054906101000a900460ff16156115195760018260ff161480156114d157506114cf30611735565b155b611510576040517f08c379a0000000000000000000000000000000000000000000000000000000008152600401611507906121a6565b60405180910390fd5b6000905061158d565b8160ff1660008054906101000a900460ff1660ff161061156e576040517f08c379a0000000000000000000000000000000000000000000000000000000008152600401611565906121a6565b60405180910390fd5b816000806101000a81548160ff021916908360ff160217905550600190505b919050565b600060019054906101000a900460ff166115e1576040517f08c379a00000000000000000000000000000000000000000000000000000000081526004016115d890612266565b60405180910390fd5b6115e9611758565b565b600060019054906101000a900460ff1661163a576040517f08c379a000000000000000000000000000000000000000000000000000000000815260040161163190612266565b60405180910390fd5b565b6000819050919050565b6000819050919050565b61165981611735565b611698576040517f08c379a000000000000000000000000000000000000000000000000000000000815260040161168f906121e6565b60405180910390fd5b806116c57f360894a13ba1a3210667c828492db98dca3e2076cc3735a920a3ca505d382bbc60010261163c565b60000160006101000a81548173ffffffffffffffffffffffffffffffffffffffff021916908373ffffffffffffffffffffffffffffffffffffffff16021790555050565b611712836117b9565b60008251118061171f5750805b156117305761172e8383611808565b505b505050565b6000808273ffffffffffffffffffffffffffffffffffffffff163b119050919050565b600060019054906101000a900460ff166117a7576040517f08c379a000000000000000000000000000000000000000000000000000000000815260040161179e90612266565b60405180910390fd5b6117b76117b26113d4565b6113dc565b565b6117c281611650565b8073ffffffffffffffffffffffffffffffffffffffff167fbc7cd75a20ee27fd9adebab32041f755214dbc6bffa90cc0225b39da2e5c2d3b60405160405180910390a250565b606061181383611735565b611852576040517f08c379a000000000000000000000000000000000000000000000000000000000815260040161184990612246565b60405180910390fd5b6000808473ffffffffffffffffffffffffffffffffffffffff168460405161187a9190611fdb565b600060405180830381855af49150503d80600081146118b5576040519150601f19603f3d011682016040523d82523d6000602084013e6118ba565b606091505b50915091506118e282826040518060600160405280602781526020016129a0602791396118ec565b9250505092915050565b606083156118fc5782905061194c565b60008351111561190f5782518084602001fd5b816040517f08c379a000000000000000000000000000000000000000000000000000000000815260040161194391906120a4565b60405180910390fd5b9392505050565b6000611966611961846122ab565b612286565b90508281526020810184848401111561197e57600080fd5b61198984828561245e565b509392505050565b6000813590506119a081612943565b92915050565b6000813590506119b58161295a565b92915050565b6000813590506119ca81612971565b92915050565b6000815190506119df81612971565b92915050565b600082601f8301126119f657600080fd5b8135611a06848260208601611953565b91505092915050565b600081359050611a1e81612988565b92915050565b600060208284031215611a3657600080fd5b6000611a4484828501611991565b91505092915050565b60008060408385031215611a6057600080fd5b6000611a6e85828601611991565b925050602083013567ffffffffffffffff811115611a8b57600080fd5b611a97858286016119e5565b9150509250929050565b600060208284031215611ab357600080fd5b6000611ac1848285016119bb565b91505092915050565b600060208284031215611adc57600080fd5b6000611aea848285016119d0565b91505092915050565b600080600060608486031215611b0857600080fd5b6000611b16868287016119bb565b9350506020611b27868287016119bb565b9250506040611b38868287016119a6565b9150509250925092565b60008060008060008060c08789031215611b5b57600080fd5b6000611b6989828a016119bb565b9650506020611b7a89828a016119bb565b9550506040611b8b89828a016119bb565b9450506060611b9c89828a016119bb565b9350506080611bad89828a01611a0f565b92505060a0611bbe89828a016119a6565b9150509295509295509295565b6000611bd78383611d3c565b60208301905092915050565b6000611bef8383611d4b565b60208301905092915050565b6000611c078383611fcc565b60208301905092915050565b611c1c816123ed565b82525050565b6000611c2d8261230c565b611c37818561236a565b9350611c42836122dc565b8060005b83811015611c73578151611c5a8882611bcb565b9750611c6583612343565b925050600181019050611c46565b5085935050505092915050565b6000611c8b82612317565b611c95818561237b565b9350611ca0836122ec565b8060005b83811015611cd1578151611cb88882611be3565b9750611cc383612350565b925050600181019050611ca4565b5085935050505092915050565b6000611ce982612322565b611cf3818561238c565b9350611cfe836122fc565b8060005b83811015611d2f578151611d168882611bfb565b9750611d218361235d565b925050600181019050611d02565b5085935050505092915050565b611d45816123ff565b82525050565b611d548161240b565b82525050565b611d638161240b565b82525050565b6000611d748261232d565b611d7e818561239d565b9350611d8e81856020860161246d565b80840191505092915050565b611da38161244c565b82525050565b6000611db482612338565b611dbe81856123a8565b9350611dce81856020860161246d565b611dd781612578565b840191505092915050565b6000611def6026836123a8565b9150611dfa82612589565b604082019050919050565b6000611e12602c836123a8565b9150611e1d826125d8565b604082019050919050565b6000611e35602c836123a8565b9150611e4082612627565b604082019050919050565b6000611e586015836123a8565b9150611e6382612676565b602082019050919050565b6000611e7b6038836123a8565b9150611e868261269f565b604082019050919050565b6000611e9e6029836123a8565b9150611ea9826126ee565b604082019050919050565b6000611ec16017836123a8565b9150611ecc8261273d565b602082019050919050565b6000611ee4602e836123a8565b9150611eef82612766565b604082019050919050565b6000611f07602e836123a8565b9150611f12826127b5565b604082019050919050565b6000611f2a602d836123a8565b9150611f3582612804565b604082019050919050565b6000611f4d6020836123a8565b9150611f5882612853565b602082019050919050565b6000611f706016836123a8565b9150611f7b8261287c565b602082019050919050565b6000611f936026836123a8565b9150611f9e826128a5565b604082019050919050565b6000611fb6602b836123a8565b9150611fc1826128f4565b604082019050919050565b611fd581612435565b82525050565b6000611fe78284611d69565b915081905092915050565b60006020820190506120076000830184611c13565b92915050565b600060808201905081810360008301526120278187611c80565b9050818103602083015261203b8186611c80565b9050818103604083015261204f8185611cde565b905081810360608301526120638184611c22565b905095945050505050565b60006020820190506120836000830184611d5a565b92915050565b600060208201905061209e6000830184611d9a565b92915050565b600060208201905081810360008301526120be8184611da9565b905092915050565b600060208201905081810360008301526120df81611de2565b9050919050565b600060208201905081810360008301526120ff81611e05565b9050919050565b6000602082019050818103600083015261211f81611e28565b9050919050565b6000602082019050818103600083015261213f81611e4b565b9050919050565b6000602082019050818103600083015261215f81611e6e565b9050919050565b6000602082019050818103600083015261217f81611e91565b9050919050565b6000602082019050818103600083015261219f81611eb4565b9050919050565b600060208201905081810360008301526121bf81611ed7565b9050919050565b600060208201905081810360008301526121df81611efa565b9050919050565b600060208201905081810360008301526121ff81611f1d565b9050919050565b6000602082019050818103600083015261221f81611f40565b9050919050565b6000602082019050818103600083015261223f81611f63565b9050919050565b6000602082019050818103600083015261225f81611f86565b9050919050565b6000602082019050818103600083015261227f81611fa9565b9050919050565b60006122906122a1565b905061229c82826124a0565b919050565b6000604051905090565b600067ffffffffffffffff8211156122c6576122c5612549565b5b6122cf82612578565b9050602081019050919050565b6000819050602082019050919050565b6000819050602082019050919050565b6000819050602082019050919050565b600081519050919050565b600081519050919050565b600081519050919050565b600081519050919050565b600081519050919050565b6000602082019050919050565b6000602082019050919050565b6000602082019050919050565b600082825260208201905092915050565b600082825260208201905092915050565b600082825260208201905092915050565b600081905092915050565b600082825260208201905092915050565b60006123c482612435565b91506123cf83612435565b9250828210156123e2576123e161251a565b5b828203905092915050565b60006123f882612415565b9050919050565b60008115159050919050565b6000819050919050565b600073ffffffffffffffffffffffffffffffffffffffff82169050919050565b6000819050919050565b600060ff82169050919050565b60006124578261243f565b9050919050565b82818337600083830152505050565b60005b8381101561248b578082015181840152602081019050612470565b8381111561249a576000848401525b50505050565b6124a982612578565b810181811067ffffffffffffffff821117156124c8576124c7612549565b5b80604052505050565b60006124dc82612435565b91507fffffffffffffffffffffffffffffffffffffffffffffffffffffffffffffffff82141561250f5761250e61251a565b5b600182019050919050565b7f4e487b7100000000000000000000000000000000000000000000000000000000600052601160045260246000fd5b7f4e487b7100000000000000000000000000000000000000000000000000000000600052604160045260246000fd5b6000601f19601f8301169050919050565b7f4f776e61626c653a206e6577206f776e657220697320746865207a65726f206160008201527f6464726573730000000000000000000000000000000000000000000000000000602082015250565b7f46756e6374696f6e206d7573742062652063616c6c6564207468726f7567682060008201527f64656c656761746563616c6c0000000000000000000000000000000000000000602082015250565b7f46756e6374696f6e206d7573742062652063616c6c6564207468726f7567682060008201527f6163746976652070726f78790000000000000000000000000000000000000000602082015250565b7f596f7520617265206e6f7420746865206f776e65720000000000000000000000600082015250565b7f555550535570677261646561626c653a206d757374206e6f742062652063616c60008201527f6c6564207468726f7567682064656c656761746563616c6c0000000000000000602082015250565b7f45524331393637557067726164653a20756e737570706f727465642070726f7860008201527f6961626c65555549440000000000000000000000000000000000000000000000602082015250565b7f5265736f7572636520616c726561647920657869737473000000000000000000600082015250565b7f496e697469616c697a61626c653a20636f6e747261637420697320616c72656160008201527f647920696e697469616c697a6564000000000000000000000000000000000000602082015250565b7f45524331393637557067726164653a206e657720696d706c656d656e7461746960008201527f6f6e206973206e6f742055555053000000000000000000000000000000000000602082015250565b7f455243313936373a206e657720696d706c656d656e746174696f6e206973206e60008201527f6f74206120636f6e747261637400000000000000000000000000000000000000602082015250565b7f4f776e61626c653a2063616c6c6572206973206e6f7420746865206f776e6572600082015250565b7f5265736f7572636520646f65736e277420657869737400000000000000000000600082015250565b7f416464726573733a2064656c65676174652063616c6c20746f206e6f6e2d636f60008201527f6e74726163740000000000000000000000000000000000000000000000000000602082015250565b7f496e697469616c697a61626c653a20636f6e7472616374206973206e6f74206960008201527f6e697469616c697a696e67000000000000000000000000000000000000000000602082015250565b61294c816123ed565b811461295757600080fd5b50565b612963816123ff565b811461296e57600080fd5b50565b61297a8161240b565b811461298557600080fd5b50565b61299181612435565b811461299c57600080fd5b5056fe416464726573733a206c6f772d6c6576656c2064656c65676174652063616c6c206661696c6564a26469706673582212208c320561f6213722818aa70c8f8852c2f1e9f1383536e07006c905d14c43fb6d64736f6c63430008020033",
  "immutableReferences": {
    "1098": [
      {
        "length": 32,
        "start": 569
      },
      {
        "length": 32,
        "start": 712
      },
      {
        "length": 32,
        "start": 1355
      },
      {
        "length": 32,
        "start": 1498
      },
      {
        "length": 32,
        "start": 1674
      }
    ]
  },
  "source": "// SPDX-License-Identifier: GPL-3.0\npragma solidity ^0.8.0;\n\nimport \"@openzeppelin/contracts-upgradeable/proxy/utils/Initializable.sol\";\nimport \"@openzeppelin/contracts-upgradeable/proxy/utils/UUPSUpgradeable.sol\";\nimport \"@openzeppelin/contracts-upgradeable/access/OwnableUpgradeable.sol\";\nimport \"@openzeppelin/contracts-upgradeable/access/AccessControlUpgradeable.sol\";\n\ncontract ConsentResource is Initializable, UUPSUpgradeable, OwnableUpgradeable {\n\n    struct Resource {\n        bytes32 resourceURI;\n        bytes32 resourceType;\n        uint256 uploadDate;\n        uint256 position;\n        bool show;\n        address owner;\n        uint index;\n    }\n\n    mapping (bytes32 => mapping(bytes32 => Resource)) resources;\n    mapping (bytes32 => bytes32[]) resourcesName;\n\n    function initialize() initializer public {\n        __Ownable_init();\n        __UUPSUpgradeable_init();\n    }\n\n    function _authorizeUpgrade(address) internal override onlyOwner {}\n\n    function getConsentResources (bytes32 consentId) external view \n        returns (bytes32[] memory, bytes32[] memory, uint256[] memory, bool[] memory) {\n        bytes32[] memory resourceURI_ = new bytes32[](resourcesName[consentId].length);\n        bytes32[] memory resourceType_ = new bytes32[](resourcesName[consentId].length);\n        uint256[] memory position_ = new uint256[](resourcesName[consentId].length);\n        bool[] memory show_ = new bool[](resourcesName[consentId].length);\n\n        for (uint i = 0; i < resourcesName[consentId].length; i ++) {\n            resourceURI_[i] = resources[consentId][resourcesName[consentId][i]].resourceURI;\n            resourceType_[i] = resources[consentId][resourcesName[consentId][i]].resourceType;\n            position_[i] = resources[consentId][resourcesName[consentId][i]].position;\n            show_[i] = resources[consentId][resourcesName[consentId][i]].show;\n        }\n\n        return (resourceURI_, resourceType_, position_, show_);\n    }\n\n    function addResource (bytes32 consentId, bytes32 name, bytes32 resourceURI, bytes32 resourceType, \n        uint256 position, bool show) external {\n        require(resources[consentId][name].uploadDate == 0, \"Resource already exists\");\n\n        resourcesName[consentId].push(name);\n        resources[consentId][name].resourceURI = resourceURI;\n        resources[consentId][name].resourceType = resourceType;\n        resources[consentId][name].uploadDate = block.timestamp;\n        resources[consentId][name].position = position;\n        resources[consentId][name].show = show;\n        resources[consentId][name].owner = msg.sender;\n        resources[consentId][name].index = resourcesName[consentId].length - 1;\n    }\n\n    function updateResourceVisibility (bytes32 consentId, bytes32 name, bool visibility) external {\n        require(resources[consentId][name].uploadDate > 0, \"Resource doesn't exist\");\n        \n        require(resources[consentId][name].owner == msg.sender, \"You are not the owner\");\n    \n        resources[consentId][name].show = visibility;\n    }\n}\n",
  "sourcePath": "C:\\Users\\Hector Zapata\\OneDrive\\Escritorio\\SmartContracts\\BHSmartContracts-feature-refactorHealthDAO\\src\\HealthDAO\\contracts\\ConsentResource.sol",
  "compiler": {
    "name": "solc",
    "version": "0.8.2+commit.661d1103.Linux.g++"
  },
  "schemaVersion": "3.4.7",
  "updatedAt": "2022-08-26T00:52:32.129Z",
  "networkType": "ethereum",
  "devdoc": {
    "kind": "dev",
    "methods": {
      "owner()": {
        "details": "Returns the address of the current owner."
      },
      "proxiableUUID()": {
        "details": "Implementation of the ERC1822 {proxiableUUID} function. This returns the storage slot used by the implementation. It is used to validate that the this implementation remains valid after an upgrade. IMPORTANT: A proxy pointing at a proxiable contract should not be considered proxiable itself, because this risks bricking a proxy that upgrades to it, by delegating to itself until out of gas. Thus it is critical that this function revert if invoked through a proxy. This is guaranteed by the `notDelegated` modifier."
      },
      "renounceOwnership()": {
        "details": "Leaves the contract without owner. It will not be possible to call `onlyOwner` functions anymore. Can only be called by the current owner. NOTE: Renouncing ownership will leave the contract without an owner, thereby removing any functionality that is only available to the owner."
      },
      "transferOwnership(address)": {
        "details": "Transfers ownership of the contract to a new account (`newOwner`). Can only be called by the current owner."
      },
      "upgradeTo(address)": {
        "details": "Upgrade the implementation of the proxy to `newImplementation`. Calls {_authorizeUpgrade}. Emits an {Upgraded} event."
      },
      "upgradeToAndCall(address,bytes)": {
        "details": "Upgrade the implementation of the proxy to `newImplementation`, and subsequently execute the function call encoded in `data`. Calls {_authorizeUpgrade}. Emits an {Upgraded} event."
      }
    },
    "version": 1
  },
  "userdoc": {
    "kind": "user",
    "methods": {},
    "version": 1
  }
}