{
  "contractName": "IPFSManagement",
  "abi": [
    {
      "anonymous": false,
      "inputs": [
        {
          "indexed": false,
          "internalType": "string",
          "name": "fileHash",
          "type": "string"
        },
        {
          "indexed": false,
          "internalType": "bytes32",
          "name": "fileName",
          "type": "bytes32"
        },
        {
          "indexed": false,
          "internalType": "address",
          "name": "owner",
          "type": "address"
        },
        {
          "indexed": false,
          "internalType": "uint256",
          "name": "uploadDate",
          "type": "uint256"
        }
      ],
      "name": "AddFile",
      "type": "event"
    },
    {
      "anonymous": false,
      "inputs": [
        {
          "indexed": false,
          "internalType": "address",
          "name": "previousAdmin",
          "type": "address"
        },
        {
          "indexed": false,
          "internalType": "address",
          "name": "newAdmin",
          "type": "address"
        }
      ],
      "name": "AdminChanged",
      "type": "event"
    },
    {
      "anonymous": false,
      "inputs": [
        {
          "indexed": true,
          "internalType": "address",
          "name": "beacon",
          "type": "address"
        }
      ],
      "name": "BeaconUpgraded",
      "type": "event"
    },
    {
      "anonymous": false,
      "inputs": [
        {
          "indexed": false,
          "internalType": "uint8",
          "name": "version",
          "type": "uint8"
        }
      ],
      "name": "Initialized",
      "type": "event"
    },
    {
      "anonymous": false,
      "inputs": [
        {
          "indexed": true,
          "internalType": "address",
          "name": "previousOwner",
          "type": "address"
        },
        {
          "indexed": true,
          "internalType": "address",
          "name": "newOwner",
          "type": "address"
        }
      ],
      "name": "OwnershipTransferred",
      "type": "event"
    },
    {
      "anonymous": false,
      "inputs": [
        {
          "indexed": false,
          "internalType": "string",
          "name": "fileHash",
          "type": "string"
        },
        {
          "indexed": false,
          "internalType": "address",
          "name": "owner",
          "type": "address"
        },
        {
          "indexed": false,
          "internalType": "uint256",
          "name": "removeDate",
          "type": "uint256"
        }
      ],
      "name": "RemoveFile",
      "type": "event"
    },
    {
      "anonymous": false,
      "inputs": [
        {
          "indexed": true,
          "internalType": "address",
          "name": "implementation",
          "type": "address"
        }
      ],
      "name": "Upgraded",
      "type": "event"
    },
    {
      "inputs": [],
      "name": "owner",
      "outputs": [
        {
          "internalType": "address",
          "name": "",
          "type": "address"
        }
      ],
      "stateMutability": "view",
      "type": "function",
      "constant": true
    },
    {
      "inputs": [],
      "name": "proxiableUUID",
      "outputs": [
        {
          "internalType": "bytes32",
          "name": "",
          "type": "bytes32"
        }
      ],
      "stateMutability": "view",
      "type": "function",
      "constant": true
    },
    {
      "inputs": [],
      "name": "renounceOwnership",
      "outputs": [],
      "stateMutability": "nonpayable",
      "type": "function"
    },
    {
      "inputs": [
        {
          "internalType": "address",
          "name": "newOwner",
          "type": "address"
        }
      ],
      "name": "transferOwnership",
      "outputs": [],
      "stateMutability": "nonpayable",
      "type": "function"
    },
    {
      "inputs": [
        {
          "internalType": "address",
          "name": "newImplementation",
          "type": "address"
        }
      ],
      "name": "upgradeTo",
      "outputs": [],
      "stateMutability": "nonpayable",
      "type": "function"
    },
    {
      "inputs": [
        {
          "internalType": "address",
          "name": "newImplementation",
          "type": "address"
        },
        {
          "internalType": "bytes",
          "name": "data",
          "type": "bytes"
        }
      ],
      "name": "upgradeToAndCall",
      "outputs": [],
      "stateMutability": "payable",
      "type": "function",
      "payable": true
    },
    {
      "inputs": [],
      "name": "initialize",
      "outputs": [],
      "stateMutability": "nonpayable",
      "type": "function"
    },
    {
      "inputs": [
        {
          "internalType": "string",
          "name": "fileHash",
          "type": "string"
        },
        {
          "internalType": "bytes32",
          "name": "fileName",
          "type": "bytes32"
        }
      ],
      "name": "addFile",
      "outputs": [],
      "stateMutability": "nonpayable",
      "type": "function"
    },
    {
      "inputs": [
        {
          "internalType": "string",
          "name": "fileHash",
          "type": "string"
        }
      ],
      "name": "removeFile",
      "outputs": [],
      "stateMutability": "nonpayable",
      "type": "function"
    },
    {
      "inputs": [
        {
          "internalType": "address",
          "name": "user",
          "type": "address"
        },
        {
          "internalType": "string",
          "name": "fileHash",
          "type": "string"
        }
      ],
      "name": "checkAccess",
      "outputs": [
        {
          "internalType": "bool",
          "name": "",
          "type": "bool"
        }
      ],
      "stateMutability": "view",
      "type": "function",
      "constant": true
    },
    {
      "inputs": [
        {
          "internalType": "address",
          "name": "user",
          "type": "address"
        },
        {
          "internalType": "string",
          "name": "fileHash",
          "type": "string"
        }
      ],
      "name": "fileIsAvailable",
      "outputs": [
        {
          "internalType": "bool",
          "name": "",
          "type": "bool"
        }
      ],
      "stateMutability": "view",
      "type": "function",
      "constant": true
    },
    {
      "inputs": [
        {
          "internalType": "address",
          "name": "user",
          "type": "address"
        }
      ],
      "name": "getFiles",
      "outputs": [
        {
          "internalType": "string[]",
          "name": "",
          "type": "string[]"
        },
        {
          "internalType": "bytes32[]",
          "name": "",
          "type": "bytes32[]"
        }
      ],
      "stateMutability": "view",
      "type": "function",
      "constant": true
    },
    {
      "inputs": [
        {
          "internalType": "uint8",
          "name": "sigV",
          "type": "uint8"
        },
        {
          "internalType": "bytes32",
          "name": "sigR",
          "type": "bytes32"
        },
        {
          "internalType": "bytes32",
          "name": "sigS",
          "type": "bytes32"
        },
        {
          "internalType": "bytes32",
          "name": "hash",
          "type": "bytes32"
        }
      ],
      "name": "getAddressFromSignature",
      "outputs": [
        {
          "internalType": "address",
          "name": "",
          "type": "address"
        }
      ],
      "stateMutability": "pure",
      "type": "function",
      "constant": true
    }
  ],
  "bytecode": "0x60a06040523073ffffffffffffffffffffffffffffffffffffffff1660809073ffffffffffffffffffffffffffffffffffffffff166c010000000000000000000000000281525034801561005257600080fd5b506080516c01000000000000000000000000900461315961009a600039600081816106f90152818161078801528181610cf401528181610d830152610e3301526131596000f3fe6080604052600436106100df576000357c010000000000000000000000000000000000000000000000000000000090048063715018a61161009c578063a2f8795611610076578063a2f8795614610251578063a5657a911461028e578063f1afe04d146102cb578063f2fde38b146102f4576100df565b8063715018a6146101f85780638129fc1c1461020f5780638da5cb5b14610226576100df565b80631294495f146100e45780633659cfe61461010d578063433bf37b146101365780634f1ef2861461017457806352d1902d146101905780635a09859d146101bb575b600080fd5b3480156100f057600080fd5b5061010b6004803603810190610106919061215a565b61031d565b005b34801561011957600080fd5b50610134600480360381019061012f919061201f565b6106f7565b005b34801561014257600080fd5b5061015d6004803603810190610158919061201f565b6108a6565b60405161016b929190612680565b60405180910390f35b61018e60048036038101906101899190612048565b610cf2565b005b34801561019c57600080fd5b506101a5610e2f565b6040516101b291906126d2565b60405180910390f35b3480156101c757600080fd5b506101e260048036038101906101dd919061209c565b610ee8565b6040516101ef91906126b7565b60405180910390f35b34801561020457600080fd5b5061020d610ffe565b005b34801561021b57600080fd5b50610224611012565b005b34801561023257600080fd5b5061023b611158565b6040516102489190612665565b60405180910390f35b34801561025d57600080fd5b50610278600480360381019061027391906121ae565b611182565b6040516102859190612665565b60405180910390f35b34801561029a57600080fd5b506102b560048036038101906102b0919061209c565b611255565b6040516102c291906126b7565b60405180910390f35b3480156102d757600080fd5b506102f260048036038101906102ed9190612119565b611468565b005b34801561030057600080fd5b5061031b6004803603810190610316919061201f565b6116cc565b005b600060c960003373ffffffffffffffffffffffffffffffffffffffff1673ffffffffffffffffffffffffffffffffffffffff1681526020019081526020016000208360405161036c919061264e565b908152602001604051809103902060010154146103be576040517f08c379a00000000000000000000000000000000000000000000000000000000081526004016103b590612939565b60405180910390fd5b60ca60003373ffffffffffffffffffffffffffffffffffffffff1673ffffffffffffffffffffffffffffffffffffffff16815260200190815260200160002082908060018154018082558091505060019003906000526020600020016000909190919091509080519060200190610436929190611e58565b508060c960003373ffffffffffffffffffffffffffffffffffffffff1673ffffffffffffffffffffffffffffffffffffffff16815260200190815260200160002083604051610485919061264e565b9081526020016040518091039020600001819055503360c960003373ffffffffffffffffffffffffffffffffffffffff1673ffffffffffffffffffffffffffffffffffffffff168152602001908152602001600020836040516104e8919061264e565b908152602001604051809103902060020160006101000a81548173ffffffffffffffffffffffffffffffffffffffff021916908373ffffffffffffffffffffffffffffffffffffffff1602179055504260c960003373ffffffffffffffffffffffffffffffffffffffff1673ffffffffffffffffffffffffffffffffffffffff16815260200190815260200160002083604051610585919061264e565b908152602001604051809103902060010181905550600160c960003373ffffffffffffffffffffffffffffffffffffffff1673ffffffffffffffffffffffffffffffffffffffff168152602001908152602001600020836040516105e9919061264e565b908152602001604051809103902060020160146101000a81548160ff02191690831515021790555060ca60003373ffffffffffffffffffffffffffffffffffffffff1673ffffffffffffffffffffffffffffffffffffffff1681526020019081526020016000208054905060c960003373ffffffffffffffffffffffffffffffffffffffff1673ffffffffffffffffffffffffffffffffffffffff168152602001908152602001600020836040516106a1919061264e565b9081526020016040518091039020600301819055507f37a9c560cf8101d15008b581709ebc725ca317015b6f6e3509324388ce5762e5828233426040516106eb94939291906127ad565b60405180910390a15050565b7f000000000000000000000000000000000000000000000000000000000000000073ffffffffffffffffffffffffffffffffffffffff163073ffffffffffffffffffffffffffffffffffffffff161415610786576040517f08c379a000000000000000000000000000000000000000000000000000000000815260040161077d90612819565b60405180910390fd5b7f000000000000000000000000000000000000000000000000000000000000000073ffffffffffffffffffffffffffffffffffffffff166107c5611750565b73ffffffffffffffffffffffffffffffffffffffff161461081b576040517f08c379a000000000000000000000000000000000000000000000000000000000815260040161081290612839565b60405180910390fd5b610824816117a7565b6108a381600067ffffffffffffffff811115610869577f4e487b7100000000000000000000000000000000000000000000000000000000600052604160045260246000fd5b6040519080825280601f01601f19166020018201604052801561089b5781602001600182028036833780820191505090505b5060006117b2565b50565b606080600060ca60008573ffffffffffffffffffffffffffffffffffffffff1673ffffffffffffffffffffffffffffffffffffffff168152602001908152602001600020805480602002602001604051908101604052809291908181526020016000905b828210156109b657838290600052602060002001805461092990612bb3565b80601f016020809104026020016040519081016040528092919081815260200182805461095590612bb3565b80156109a25780601f10610977576101008083540402835291602001916109a2565b820191906000526020600020905b81548152906001019060200180831161098557829003601f168201915b50505050508152602001906001019061090a565b5050505090506000815167ffffffffffffffff8111156109ff577f4e487b7100000000000000000000000000000000000000000000000000000000600052604160045260246000fd5b604051908082528060200260200182016040528015610a3257816020015b6060815260200190600190039081610a1d5790505b5090506000825167ffffffffffffffff811115610a78577f4e487b7100000000000000000000000000000000000000000000000000000000600052604160045260246000fd5b604051908082528060200260200182016040528015610aa65781602001602082028036833780820191505090505b50905060005b8351811015610ce35760c960008873ffffffffffffffffffffffffffffffffffffffff1673ffffffffffffffffffffffffffffffffffffffff168152602001908152602001600020848281518110610b2d577f4e487b7100000000000000000000000000000000000000000000000000000000600052603260045260246000fd5b6020026020010151604051610b42919061264e565b908152602001604051809103902060020160149054906101000a900460ff1615610cd057838181518110610b9f577f4e487b7100000000000000000000000000000000000000000000000000000000600052603260045260246000fd5b6020026020010151838281518110610be0577f4e487b7100000000000000000000000000000000000000000000000000000000600052603260045260246000fd5b602002602001018190525060c960008873ffffffffffffffffffffffffffffffffffffffff1673ffffffffffffffffffffffffffffffffffffffff168152602001908152602001600020848281518110610c63577f4e487b7100000000000000000000000000000000000000000000000000000000600052603260045260246000fd5b6020026020010151604051610c78919061264e565b908152602001604051809103902060000154828281518110610cc3577f4e487b7100000000000000000000000000000000000000000000000000000000600052603260045260246000fd5b6020026020010181815250505b8080610cdb90612c16565b915050610aac565b50818194509450505050915091565b7f000000000000000000000000000000000000000000000000000000000000000073ffffffffffffffffffffffffffffffffffffffff163073ffffffffffffffffffffffffffffffffffffffff161415610d81576040517f08c379a0000000000000000000000000000000000000000000000000000000008152600401610d7890612819565b60405180910390fd5b7f000000000000000000000000000000000000000000000000000000000000000073ffffffffffffffffffffffffffffffffffffffff16610dc0611750565b73ffffffffffffffffffffffffffffffffffffffff1614610e16576040517f08c379a0000000000000000000000000000000000000000000000000000000008152600401610e0d90612839565b60405180910390fd5b610e1f826117a7565b610e2b828260016117b2565b5050565b60007f000000000000000000000000000000000000000000000000000000000000000073ffffffffffffffffffffffffffffffffffffffff163073ffffffffffffffffffffffffffffffffffffffff1614610ebf576040517f08c379a0000000000000000000000000000000000000000000000000000000008152600401610eb690612879565b60405180910390fd5b7f360894a13ba1a3210667c828492db98dca3e2076cc3735a920a3ca505d382bbc600102905090565b60008060c960008573ffffffffffffffffffffffffffffffffffffffff1673ffffffffffffffffffffffffffffffffffffffff16815260200190815260200160002083604051610f38919061264e565b90815260200160405180910390206001015411610f8a576040517f08c379a0000000000000000000000000000000000000000000000000000000008152600401610f8190612959565b60405180910390fd5b60c960008473ffffffffffffffffffffffffffffffffffffffff1673ffffffffffffffffffffffffffffffffffffffff16815260200190815260200160002082604051610fd7919061264e565b908152602001604051809103902060020160149054906101000a900460ff16905092915050565b61100661194b565b61101060006119c9565b565b60008060019054906101000a900460ff161590508080156110435750600160008054906101000a900460ff1660ff16105b80611070575061105230611a8f565b15801561106f5750600160008054906101000a900460ff1660ff16145b5b6110af576040517f08c379a00000000000000000000000000000000000000000000000000000000081526004016110a6906128b9565b60405180910390fd5b60016000806101000a81548160ff021916908360ff16021790555080156110ec576001600060016101000a81548160ff0219169083151502179055505b6110f4611ab2565b6110fc611b0b565b80156111555760008060016101000a81548160ff0219169083151502179055507f7f26b83ff96e1f2b6a682f133852f6798a09c465da95921460cefb3847402498600160405161114c9190612732565b60405180910390a15b50565b6000609760009054906101000a900473ffffffffffffffffffffffffffffffffffffffff16905090565b600080600183878787604051600081526020016040526040516111a894939291906126ed565b6020604051602081039080840390855afa1580156111ca573d6000803e3d6000fd5b505050602060405103519050600073ffffffffffffffffffffffffffffffffffffffff168173ffffffffffffffffffffffffffffffffffffffff16141580156112405750600073ffffffffffffffffffffffffffffffffffffffff168173ffffffffffffffffffffffffffffffffffffffff1614155b61124957600080fd5b80915050949350505050565b60008060c960008573ffffffffffffffffffffffffffffffffffffffff1673ffffffffffffffffffffffffffffffffffffffff168152602001908152602001600020836040516112a5919061264e565b908152602001604051809103902060010154116112f7576040517f08c379a00000000000000000000000000000000000000000000000000000000081526004016112ee90612959565b60405180910390fd5b60c960008473ffffffffffffffffffffffffffffffffffffffff1673ffffffffffffffffffffffffffffffffffffffff16815260200190815260200160002082604051611344919061264e565b908152602001604051809103902060020160149054906101000a900460ff166113a2576040517f08c379a000000000000000000000000000000000000000000000000000000000815260040161139990612859565b60405180910390fd5b8273ffffffffffffffffffffffffffffffffffffffff1660c960008573ffffffffffffffffffffffffffffffffffffffff1673ffffffffffffffffffffffffffffffffffffffff16815260200190815260200160002083604051611406919061264e565b908152602001604051809103902060020160009054906101000a900473ffffffffffffffffffffffffffffffffffffffff1673ffffffffffffffffffffffffffffffffffffffff16141561145d5760019050611462565b600090505b92915050565b600060c960003373ffffffffffffffffffffffffffffffffffffffff1673ffffffffffffffffffffffffffffffffffffffff168152602001908152602001600020826040516114b7919061264e565b90815260200160405180910390206001015411611509576040517f08c379a000000000000000000000000000000000000000000000000000000000815260040161150090612959565b60405180910390fd5b60c960003373ffffffffffffffffffffffffffffffffffffffff1673ffffffffffffffffffffffffffffffffffffffff16815260200190815260200160002081604051611556919061264e565b908152602001604051809103902060020160149054906101000a900460ff166115b4576040517f08c379a00000000000000000000000000000000000000000000000000000000081526004016115ab90612859565b60405180910390fd5b600060c960003373ffffffffffffffffffffffffffffffffffffffff1673ffffffffffffffffffffffffffffffffffffffff16815260200190815260200160002082604051611603919061264e565b908152602001604051809103902060020160146101000a81548160ff0219169083151502179055504260c960003373ffffffffffffffffffffffffffffffffffffffff1673ffffffffffffffffffffffffffffffffffffffff16815260200190815260200160002082604051611679919061264e565b9081526020016040518091039020600101819055507f7ef8a5903e28a9f62d9ea9c34760a5aa243b6e6b989d499e59eaf9757e5f964f8133426040516116c19392919061276f565b60405180910390a150565b6116d461194b565b600073ffffffffffffffffffffffffffffffffffffffff168173ffffffffffffffffffffffffffffffffffffffff161415611744576040517f08c379a000000000000000000000000000000000000000000000000000000000815260040161173b906127f9565b60405180910390fd5b61174d816119c9565b50565b600061177e7f360894a13ba1a3210667c828492db98dca3e2076cc3735a920a3ca505d382bbc600102611b5c565b60000160009054906101000a900473ffffffffffffffffffffffffffffffffffffffff16905090565b6117af61194b565b50565b6117de7f4910fdfa16fed3260ed0e7147f7cc6da11a60208b5b9406d12a635614ffd9143600102611b66565b60000160009054906101000a900460ff1615611802576117fd83611b70565b611946565b8273ffffffffffffffffffffffffffffffffffffffff166352d1902d6040518163ffffffff167c010000000000000000000000000000000000000000000000000000000002815260040160206040518083038186803b15801561186457600080fd5b505afa92505050801561189557506040513d601f19601f8201168201806040525081019061189291906120f0565b60015b6118d4576040517f08c379a00000000000000000000000000000000000000000000000000000000081526004016118cb906128d9565b60405180910390fd5b7f360894a13ba1a3210667c828492db98dca3e2076cc3735a920a3ca505d382bbc6001028114611939576040517f08c379a000000000000000000000000000000000000000000000000000000000815260040161193090612899565b60405180910390fd5b50611945838383611c29565b5b505050565b611953611c55565b73ffffffffffffffffffffffffffffffffffffffff16611971611158565b73ffffffffffffffffffffffffffffffffffffffff16146119c7576040517f08c379a00000000000000000000000000000000000000000000000000000000081526004016119be90612919565b60405180910390fd5b565b6000609760009054906101000a900473ffffffffffffffffffffffffffffffffffffffff16905081609760006101000a81548173ffffffffffffffffffffffffffffffffffffffff021916908373ffffffffffffffffffffffffffffffffffffffff1602179055508173ffffffffffffffffffffffffffffffffffffffff168173ffffffffffffffffffffffffffffffffffffffff167f8be0079c531659141344cd1fd0a4f28419497f9722a3daafe3b4186f6b6457e060405160405180910390a35050565b6000808273ffffffffffffffffffffffffffffffffffffffff163b119050919050565b600060019054906101000a900460ff16611b01576040517f08c379a0000000000000000000000000000000000000000000000000000000008152600401611af890612999565b60405180910390fd5b611b09611c5d565b565b600060019054906101000a900460ff16611b5a576040517f08c379a0000000000000000000000000000000000000000000000000000000008152600401611b5190612999565b60405180910390fd5b565b6000819050919050565b6000819050919050565b611b7981611a8f565b611bb8576040517f08c379a0000000000000000000000000000000000000000000000000000000008152600401611baf906128f9565b60405180910390fd5b80611be57f360894a13ba1a3210667c828492db98dca3e2076cc3735a920a3ca505d382bbc600102611b5c565b60000160006101000a81548173ffffffffffffffffffffffffffffffffffffffff021916908373ffffffffffffffffffffffffffffffffffffffff16021790555050565b611c3283611cbe565b600082511180611c3f5750805b15611c5057611c4e8383611d0d565b505b505050565b600033905090565b600060019054906101000a900460ff16611cac576040517f08c379a0000000000000000000000000000000000000000000000000000000008152600401611ca390612999565b60405180910390fd5b611cbc611cb7611c55565b6119c9565b565b611cc781611b70565b8073ffffffffffffffffffffffffffffffffffffffff167fbc7cd75a20ee27fd9adebab32041f755214dbc6bffa90cc0225b39da2e5c2d3b60405160405180910390a250565b6060611d1883611a8f565b611d57576040517f08c379a0000000000000000000000000000000000000000000000000000000008152600401611d4e90612979565b60405180910390fd5b6000808473ffffffffffffffffffffffffffffffffffffffff1684604051611d7f9190612637565b600060405180830381855af49150503d8060008114611dba576040519150601f19603f3d011682016040523d82523d6000602084013e611dbf565b606091505b5091509150611de782826040518060600160405280602781526020016130fd60279139611df1565b9250505092915050565b60608315611e0157829050611e51565b600083511115611e145782518084602001fd5b816040517f08c379a0000000000000000000000000000000000000000000000000000000008152600401611e48919061274d565b60405180910390fd5b9392505050565b828054611e6490612bb3565b90600052602060002090601f016020900481019282611e865760008555611ecd565b82601f10611e9f57805160ff1916838001178555611ecd565b82800160010185558215611ecd579182015b82811115611ecc578251825591602001919060010190611eb1565b5b509050611eda9190611ede565b5090565b5b80821115611ef7576000816000905550600101611edf565b5090565b6000611f0e611f09846129de565b6129b9565b905082815260208101848484011115611f2657600080fd5b611f31848285612b71565b509392505050565b6000611f4c611f4784612a0f565b6129b9565b905082815260208101848484011115611f6457600080fd5b611f6f848285612b71565b509392505050565b600081359050611f86816130b7565b92915050565b600081359050611f9b816130ce565b92915050565b600081519050611fb0816130ce565b92915050565b600082601f830112611fc757600080fd5b8135611fd7848260208601611efb565b91505092915050565b600082601f830112611ff157600080fd5b8135612001848260208601611f39565b91505092915050565b600081359050612019816130e5565b92915050565b60006020828403121561203157600080fd5b600061203f84828501611f77565b91505092915050565b6000806040838503121561205b57600080fd5b600061206985828601611f77565b925050602083013567ffffffffffffffff81111561208657600080fd5b61209285828601611fb6565b9150509250929050565b600080604083850312156120af57600080fd5b60006120bd85828601611f77565b925050602083013567ffffffffffffffff8111156120da57600080fd5b6120e685828601611fe0565b9150509250929050565b60006020828403121561210257600080fd5b600061211084828501611fa1565b91505092915050565b60006020828403121561212b57600080fd5b600082013567ffffffffffffffff81111561214557600080fd5b61215184828501611fe0565b91505092915050565b6000806040838503121561216d57600080fd5b600083013567ffffffffffffffff81111561218757600080fd5b61219385828601611fe0565b92505060206121a485828601611f8c565b9150509250929050565b600080600080608085870312156121c457600080fd5b60006121d28782880161200a565b94505060206121e387828801611f8c565b93505060406121f487828801611f8c565b925050606061220587828801611f8c565b91505092959194509250565b600061221d838361232e565b60208301905092915050565b6000612235838361238c565b905092915050565b61224681612b00565b82525050565b600061225782612a60565b6122618185612aa6565b935061226c83612a40565b8060005b8381101561229d5781516122848882612211565b975061228f83612a8c565b925050600181019050612270565b5085935050505092915050565b60006122b582612a6b565b6122bf8185612ab7565b9350836020820285016122d185612a50565b8060005b8581101561230d57848403895281516122ee8582612229565b94506122f983612a99565b925060208a019950506001810190506122d5565b50829750879550505050505092915050565b61232881612b12565b82525050565b61233781612b1e565b82525050565b61234681612b1e565b82525050565b600061235782612a76565b6123618185612ac8565b9350612371818560208601612b80565b80840191505092915050565b61238681612b5f565b82525050565b600061239782612a81565b6123a18185612ad3565b93506123b1818560208601612b80565b6123ba81612cec565b840191505092915050565b60006123d082612a81565b6123da8185612ae4565b93506123ea818560208601612b80565b6123f381612cec565b840191505092915050565b600061240982612a81565b6124138185612af5565b9350612423818560208601612b80565b80840191505092915050565b600061243c602683612ae4565b915061244782612cfd565b604082019050919050565b600061245f602c83612ae4565b915061246a82612d4c565b604082019050919050565b6000612482602c83612ae4565b915061248d82612d9b565b604082019050919050565b60006124a5601483612ae4565b91506124b082612dea565b602082019050919050565b60006124c8603883612ae4565b91506124d382612e13565b604082019050919050565b60006124eb602983612ae4565b91506124f682612e62565b604082019050919050565b600061250e602e83612ae4565b915061251982612eb1565b604082019050919050565b6000612531602e83612ae4565b915061253c82612f00565b604082019050919050565b6000612554602d83612ae4565b915061255f82612f4f565b604082019050919050565b6000612577602083612ae4565b915061258282612f9e565b602082019050919050565b600061259a601783612ae4565b91506125a582612fc7565b602082019050919050565b60006125bd601383612ae4565b91506125c882612ff0565b602082019050919050565b60006125e0602683612ae4565b91506125eb82613019565b604082019050919050565b6000612603602b83612ae4565b915061260e82613068565b604082019050919050565b61262281612b48565b82525050565b61263181612b52565b82525050565b6000612643828461234c565b915081905092915050565b600061265a82846123fe565b915081905092915050565b600060208201905061267a600083018461223d565b92915050565b6000604082019050818103600083015261269a81856122aa565b905081810360208301526126ae818461224c565b90509392505050565b60006020820190506126cc600083018461231f565b92915050565b60006020820190506126e7600083018461233d565b92915050565b6000608082019050612702600083018761233d565b61270f6020830186612628565b61271c604083018561233d565b612729606083018461233d565b95945050505050565b6000602082019050612747600083018461237d565b92915050565b6000602082019050818103600083015261276781846123c5565b905092915050565b6000606082019050818103600083015261278981866123c5565b9050612798602083018561223d565b6127a56040830184612619565b949350505050565b600060808201905081810360008301526127c781876123c5565b90506127d6602083018661233d565b6127e3604083018561223d565b6127f06060830184612619565b95945050505050565b600060208201905081810360008301526128128161242f565b9050919050565b6000602082019050818103600083015261283281612452565b9050919050565b6000602082019050818103600083015261285281612475565b9050919050565b6000602082019050818103600083015261287281612498565b9050919050565b60006020820190508181036000830152612892816124bb565b9050919050565b600060208201905081810360008301526128b2816124de565b9050919050565b600060208201905081810360008301526128d281612501565b9050919050565b600060208201905081810360008301526128f281612524565b9050919050565b6000602082019050818103600083015261291281612547565b9050919050565b600060208201905081810360008301526129328161256a565b9050919050565b600060208201905081810360008301526129528161258d565b9050919050565b60006020820190508181036000830152612972816125b0565b9050919050565b60006020820190508181036000830152612992816125d3565b9050919050565b600060208201905081810360008301526129b2816125f6565b9050919050565b60006129c36129d4565b90506129cf8282612be5565b919050565b6000604051905090565b600067ffffffffffffffff8211156129f9576129f8612cbd565b5b612a0282612cec565b9050602081019050919050565b600067ffffffffffffffff821115612a2a57612a29612cbd565b5b612a3382612cec565b9050602081019050919050565b6000819050602082019050919050565b6000819050602082019050919050565b600081519050919050565b600081519050919050565b600081519050919050565b600081519050919050565b6000602082019050919050565b6000602082019050919050565b600082825260208201905092915050565b600082825260208201905092915050565b600081905092915050565b600082825260208201905092915050565b600082825260208201905092915050565b600081905092915050565b6000612b0b82612b28565b9050919050565b60008115159050919050565b6000819050919050565b600073ffffffffffffffffffffffffffffffffffffffff82169050919050565b6000819050919050565b600060ff82169050919050565b6000612b6a82612b52565b9050919050565b82818337600083830152505050565b60005b83811015612b9e578082015181840152602081019050612b83565b83811115612bad576000848401525b50505050565b60006002820490506001821680612bcb57607f821691505b60208210811415612bdf57612bde612c8e565b5b50919050565b612bee82612cec565b810181811067ffffffffffffffff82111715612c0d57612c0c612cbd565b5b80604052505050565b6000612c2182612b48565b91507fffffffffffffffffffffffffffffffffffffffffffffffffffffffffffffffff821415612c5457612c53612c5f565b5b600182019050919050565b7f4e487b7100000000000000000000000000000000000000000000000000000000600052601160045260246000fd5b7f4e487b7100000000000000000000000000000000000000000000000000000000600052602260045260246000fd5b7f4e487b7100000000000000000000000000000000000000000000000000000000600052604160045260246000fd5b6000601f19601f8301169050919050565b7f4f776e61626c653a206e6577206f776e657220697320746865207a65726f206160008201527f6464726573730000000000000000000000000000000000000000000000000000602082015250565b7f46756e6374696f6e206d7573742062652063616c6c6564207468726f7567682060008201527f64656c656761746563616c6c0000000000000000000000000000000000000000602082015250565b7f46756e6374696f6e206d7573742062652063616c6c6564207468726f7567682060008201527f6163746976652070726f78790000000000000000000000000000000000000000602082015250565b7f46696c6520616c72656164792064656c65746564000000000000000000000000600082015250565b7f555550535570677261646561626c653a206d757374206e6f742062652063616c60008201527f6c6564207468726f7567682064656c656761746563616c6c0000000000000000602082015250565b7f45524331393637557067726164653a20756e737570706f727465642070726f7860008201527f6961626c65555549440000000000000000000000000000000000000000000000602082015250565b7f496e697469616c697a61626c653a20636f6e747261637420697320616c72656160008201527f647920696e697469616c697a6564000000000000000000000000000000000000602082015250565b7f45524331393637557067726164653a206e657720696d706c656d656e7461746960008201527f6f6e206973206e6f742055555053000000000000000000000000000000000000602082015250565b7f455243313936373a206e657720696d706c656d656e746174696f6e206973206e60008201527f6f74206120636f6e747261637400000000000000000000000000000000000000602082015250565b7f4f776e61626c653a2063616c6c6572206973206e6f7420746865206f776e6572600082015250565b7f46696c6520616c72656164792072656769737465726564000000000000000000600082015250565b7f46696c6520646f6573206e6f7420657869737400000000000000000000000000600082015250565b7f416464726573733a2064656c65676174652063616c6c20746f206e6f6e2d636f60008201527f6e74726163740000000000000000000000000000000000000000000000000000602082015250565b7f496e697469616c697a61626c653a20636f6e7472616374206973206e6f74206960008201527f6e697469616c697a696e67000000000000000000000000000000000000000000602082015250565b6130c081612b00565b81146130cb57600080fd5b50565b6130d781612b1e565b81146130e257600080fd5b50565b6130ee81612b52565b81146130f957600080fd5b5056fe416464726573733a206c6f772d6c6576656c2064656c65676174652063616c6c206661696c6564a2646970667358221220c52a21a3404b13bfe7c14d725efa5e0f56616feba832516eda74774e174a8b0a64736f6c63430008020033",
  "immutableReferences": {
    "702": [
      {
        "length": 32,
        "start": 1785
      },
      {
        "length": 32,
        "start": 1928
      },
      {
        "length": 32,
        "start": 3316
      },
      {
        "length": 32,
        "start": 3459
      },
      {
        "length": 32,
        "start": 3635
      }
    ]
  },
  "source": "// SPDX-License-Identifier: GPL-3.0\npragma solidity ^0.8.0;\n\nimport \"@openzeppelin/contracts-upgradeable/proxy/utils/Initializable.sol\";\nimport \"@openzeppelin/contracts-upgradeable/proxy/utils/UUPSUpgradeable.sol\";\nimport \"@openzeppelin/contracts-upgradeable/access/OwnableUpgradeable.sol\";\n\ncontract IPFSManagement is Initializable, UUPSUpgradeable, OwnableUpgradeable {\n\n    struct UserFile {\n        bytes32 fileName;\n        uint256 changeDate;\n        address owner;\n        bool status;\n        uint index;\n    }\n\n    event AddFile (\n        string fileHash,\n        bytes32 fileName,\n        address owner,\n        uint256 uploadDate\n    );\n\n    event RemoveFile (\n        string fileHash,\n        address owner,\n        uint256 removeDate\n    );\n\n    mapping (address => mapping(string => UserFile)) fileDetailsByUser;\n    mapping (address => string[]) fileByUser;\n\n    function initialize() initializer public {\n        __Ownable_init();\n        __UUPSUpgradeable_init();\n    }\n\n    function _authorizeUpgrade(address) internal override onlyOwner {}\n\n    function addFile (string memory fileHash, bytes32 fileName) external {\n        require(fileDetailsByUser[msg.sender][fileHash].changeDate == 0, \"File already registered\");\n\n        fileByUser[msg.sender].push(fileHash);\n        fileDetailsByUser[msg.sender][fileHash].fileName = fileName;\n        fileDetailsByUser[msg.sender][fileHash].owner = msg.sender;\n        fileDetailsByUser[msg.sender][fileHash].changeDate = block.timestamp;\n        fileDetailsByUser[msg.sender][fileHash].status = true;\n        fileDetailsByUser[msg.sender][fileHash].index = fileByUser[msg.sender].length;\n\n        emit AddFile(fileHash, fileName, msg.sender, block.timestamp);\n    }\n\n    function removeFile (string memory fileHash) external {\n        require(fileDetailsByUser[msg.sender][fileHash].changeDate > 0, \"File does not exist\");\n        require(fileDetailsByUser[msg.sender][fileHash].status, \"File already deleted\");\n\n        fileDetailsByUser[msg.sender][fileHash].status = false;\n        fileDetailsByUser[msg.sender][fileHash].changeDate = block.timestamp;\n\n        emit RemoveFile(fileHash, msg.sender, block.timestamp);\n    }\n\n    function checkAccess (address user, string memory fileHash) external view returns (bool) {\n        require(fileDetailsByUser[user][fileHash].changeDate > 0, \"File does not exist\");\n        require(fileDetailsByUser[user][fileHash].status, \"File already deleted\");\n\n        if (fileDetailsByUser[user][fileHash].owner == user) {\n            return true;\n        }\n\n        return false;\n    }\n\n    function fileIsAvailable (address user, string memory fileHash) external view returns (bool) {\n        require(fileDetailsByUser[user][fileHash].changeDate > 0, \"File does not exist\");\n\n        return fileDetailsByUser[user][fileHash].status;\n    }\n\n    function getFiles (address user) external view returns (string[] memory, bytes32[] memory) {\n        string[] memory _filesByUser = fileByUser[user];\n\n        string[] memory hashes_ = new string[](_filesByUser.length);\n        bytes32[] memory names_ = new bytes32[](_filesByUser.length);\n\n        for (uint i = 0; i < _filesByUser.length; i++) {\n            if (fileDetailsByUser[user][_filesByUser[i]].status) {\n                hashes_[i] = _filesByUser[i];\n                names_[i] = fileDetailsByUser[user][_filesByUser[i]].fileName;\n            }\n        }\n\n        return (hashes_, names_);\n    }\n\n    function getAddressFromSignature (uint8 sigV, bytes32 sigR, bytes32 sigS, bytes32 hash) public pure \n        returns (address) {\n        address user = ecrecover(hash, sigV, sigR, sigS);\n        require(user != address(0x0) && user != address(0x0));\n\n        return user;\n    }\n}",
  "sourcePath": "C:\\Users\\Hector Zapata\\OneDrive\\Escritorio\\SmartContracts\\BHSmartContracts-feature-refactorHealthDAO\\src\\IPFSManagement\\contracts\\IPFSManagement.sol",
  "compiler": {
    "name": "solc",
    "version": "0.8.2+commit.661d1103.Emscripten.clang"
  },
  "schemaVersion": "3.4.7",
  "updatedAt": "2022-08-26T06:24:05.300Z",
  "networkType": "ethereum",
  "devdoc": {
    "kind": "dev",
    "methods": {
      "owner()": {
        "details": "Returns the address of the current owner."
      },
      "proxiableUUID()": {
        "details": "Implementation of the ERC1822 {proxiableUUID} function. This returns the storage slot used by the implementation. It is used to validate that the this implementation remains valid after an upgrade. IMPORTANT: A proxy pointing at a proxiable contract should not be considered proxiable itself, because this risks bricking a proxy that upgrades to it, by delegating to itself until out of gas. Thus it is critical that this function revert if invoked through a proxy. This is guaranteed by the `notDelegated` modifier."
      },
      "renounceOwnership()": {
        "details": "Leaves the contract without owner. It will not be possible to call `onlyOwner` functions anymore. Can only be called by the current owner. NOTE: Renouncing ownership will leave the contract without an owner, thereby removing any functionality that is only available to the owner."
      },
      "transferOwnership(address)": {
        "details": "Transfers ownership of the contract to a new account (`newOwner`). Can only be called by the current owner."
      },
      "upgradeTo(address)": {
        "details": "Upgrade the implementation of the proxy to `newImplementation`. Calls {_authorizeUpgrade}. Emits an {Upgraded} event."
      },
      "upgradeToAndCall(address,bytes)": {
        "details": "Upgrade the implementation of the proxy to `newImplementation`, and subsequently execute the function call encoded in `data`. Calls {_authorizeUpgrade}. Emits an {Upgraded} event."
      }
    },
    "version": 1
  },
  "userdoc": {
    "kind": "user",
    "methods": {},
    "version": 1
  }
}